:020000040000FA
:04000000DBEF09F039
:08000800056ED8CF06F0E0CF31
:1000100007F00001E9CF0DF0EACF08F0E1CF09F0D9
:10002000E2CF0AF0D9CF0BF0DACF0CF0F3CF14F017
:10003000F4CF15F0FACF16F000C00FF001C010F0A9
:1000400002C011F003C012F004C013F0A0AA2CEFFC
:1000500000F0A1BAFBEF05F00FC000F010C001F0F6
:1000600011C002F012C003F013C004F00E8E0DC0D8
:10007000E9FF08C0EAFF09C0E1FF0AC0E2FF0BC0C8
:10008000D9FF0CC0DAFF14C0F3FF15C0F4FF16C08F
:10009000FAFF055007C0E0FF06C0D8FF1000F76A5E
:1000A000AE0FF66E000EF7220900F55012000403A1
:1000B00000000000000000000000000000000DAE85
:1000C00003D0F2CF0EF0F29EF76AE00FF66E000E4C
:1000D000F7220900F5500DAE02D00EBEF28E1200CE
:1000E0004000400000000000000000000000000090
:1000F0000000000000000000000000000000000000
:10010000F76A100FF66E010EF7220900F550120083
:100110000600FF0901A101190129081580257F7535
:10012000089540810219012908750895409102C07F
:10013000F76A400FF66E010EF7220900F550120023
:100140000000F76A520FF66E010EF7220900F55013
:1001500012002000F76A640FF66E010EF722090004
:10016000F550120009022900010100C03209040003
:100170000002030000000921000100012220000705
:1001800005810340000A0705010340000A00F76AE1
:100190009E0FF66E010EF7220900F55012000100C5
:1001A000F76AB00FF66E010EF7220900F550120043
:1001B000120110010000004061040400000101026E
:1001C0000001F76AD20FF66E010EF7220900F55012
:1001D00012000403000408035A0057004C001403E3
:1001E00049004E0043005500530043004F005000AB
:1001F00045006D926994689406EF06F06A6A689209
:100200000FEF06F0956B95530AE1036A95512D0F98
:10021000E96E000E0320EA6EEF6A952BF4D7206A90
:10022000010E216E1F6A000C010E9E6F9E510F0879
:100230000EE3700E9E25016E0F0E036ED8B0032ADA
:1002400001C0E9FF03C0EAFFEF6A9E2BEFD7246AE3
:10025000236A000C400E0401016F050E036F026B50
:10026000880E006F046B050E076F400E066F0001CD
:10027000000C6A6A686A9F0E6B6E390E696E6E6A50
:10028000C1DFD2DF160E706E68A602D06896FCD76A
:100290006D98E0DF030E256E15EF06F0698468980F
:1002A0006D821BEF06F0689C21EF06F070A002D073
:1002B000D1DF7090689A27EF06F099C026F0000C05
:1002C000FF0E266E000C976B2C523EE097513F08B4
:1002D0003BE32250FC0F2BE2040FAEEF01F0036A68
:1002E0002B50F2CF99F0F29E35DF99BFF28E986FC6
:1002F0001ED0036A2B50F2CF99F0F29E01DF99BF16
:10030000F28E986F14D0036A2B50F2CF99F0F29EC0
:1003100058DF99BFF28E986F0AD0036A2B50F2CF44
:1003200099F0F29E3DDF99BFF28E986F00D02B2A94
:100330002C069751972B036A400FE96E050E032098
:10034000EA6E98C0EFFFC0D72C5204E197514008E5
:1003500001E01F6A97C099F0B0DF000CE824F76A4B
:10036000F736770FF66E030EF7220A00F550FA6E95
:100370000800F550F96EDE02F20206031A032B6A3A
:10038000226A05010351010A000109E0030A0CE099
:10039000010A0DE0220A22E0030A32E058D0120ED0
:1003A0002C6E030E226E55D0290E2C6E52D0020EEA
:1003B000226E036A05010251270FE96E000E032029
:1003C000EA6EEFCF2BF0036A2B50F2CF97F0F29E3C
:1003D0000001F7DE97BFF28E2C6E3BD0120E2B6E13
:1003E0002B3C01D00BD0036A2B50F2CF97F0F29E3A
:1003F000B1DE97BFF28E2C6E2CD002D061DF35D0EB
:10040000D89005010435036AF2CF97F0F29E0001FF
:100410008FDE0900F5CF03F097BFF28E2B6E2B3CD9
:1004200001D013D0010E226ED89005010435036A65
:10043000F2CF97F0F29E000184DE0900F5CF03F0C1
:1004400097BFF28E2C6E05D002D03ADF0ED038DF87
:100450000CD00501075305E12C50065D02E206C5EC
:100460002CF0010E1F6E00012EDF000C965304E1EC
:10047000040E256ED9DEC1D0050E256E996F800E53
:10048000986F010E976F97510F08D8A0B6D09A6B4E
:10049000036A9751F2CF9EF0F29E01DE9EBFF28E6C
:1004A000000A51E0040E9A6FD8909735036AF2CF94
:1004B0009EF0F29E04DE0900F5CF03F09EBFF28E9F
:1004C0009B6F03C09CF09751080DF350010F016E14
:1004D000040E036ED8B0032A01C0E9FF03C0EAFF8F
:1004E0009BC0EFFF9751080DF350020F016E040EF1
:1004F000036ED8B0032A01C0E9FF03C0EAFF99C028
:10050000ECFFED5298C0EFFFD8909735036AF2CF19
:100510009EF0F29ED4DD0900F5CF03F09EBFF28E6F
:10052000982703509923880E9D6F9CB19D819CB3A1
:100530009D839751080DF3CF01F0040E01C0E9FF30
:10054000EA6E9DC0EFFF036A9751F2CF9EF0F29ED4
:10055000A6DD9EBFF28E000A31E09A839751080D06
:10056000F350060F016E040E036ED8B0032A01C0CB
:10057000E9FF03C0EAFF99C0ECFFED5298C0EFFF1E
:10058000D8909735036AF2CF9EF0F29E98DD09006D
:10059000F5CF03F09EBFF28E982703509923975111
:1005A000080DF350040F016E040E036ED8B0032A39
:1005B00001C0E9FF03C0EAFF400EEF6E9A51060842
:1005C00002E10E0E9A6F036A9751F2CF9EF0F29EEF
:1005D00066DD9EBFF28E020801E09A89700E9725B3
:1005E000016E0F0E036ED8B0032A01C0E9FF03C0ED
:1005F000EAFF9AC0EFFF972B46D749EF03F00501BA
:10060000015100010DE0010A14E0020A1EE0060A91
:1006100027E0030A2CE00E0A2CE0010A30E03DD06E
:1006200021C040F50501416B020E0001996F45DEC6
:1006300036D00501022D06D0010E21160001996B5E
:100640003CDE02D000013CDE2AD00501022D05D09F
:1006500021820001996B31DE02D0000131DE1FD012
:10066000020E1F6E02C52AF0996B27DE18D087DEB6
:1006700016D020C040F5010E996F1FDE10D0050185
:100680000251010808E302C520F002C596F00001FE
:10069000EDD6996B12DE000102D012DE00D07FEFA2
:1006A00004F020C096F005010151000107E00A0A9C
:1006B0000DE0010A2DE00D0A3DE03ED00501406B42
:1006C000416B020E0001996FF8DD38D096531EE0A1
:1006D000010E965D036AF2CF98F0F29E58DD98BF46
:1006E000F28E016E0501045DD8A002D000010ED08B
:1006F000036A04512D0FE96E000E0320EA6EEFCF5E
:1007000040F5010E0001996FD8DD01D0D9DD16D07A
:1007100096530EE0036A050104512D0FE96E000E99
:100720000320EA6E02C5EFFF0001996BC6DD01D020
:10073000C7DD04D024DE02D0C3DD00D07FEF04F09B
:10074000979196BF9781969F97A110D0036A965173
:10075000F2CF98F0F29EA3DC98BFF28E000A02E17D
:10076000000E01D0010E016E10D00FD0036A965119
:10077000F2CF98F0F29E93DC98BFF28E000A02E16D
:10078000000E01D0010E016E00D037EF04F09791FA
:1007900096BF9781969F97A110D09651080DF35060
:1007A000040F016E040E036ED8B0032A01C0E9FFE6
:1007B00003C0EAFF880EEF6E09D09651080DF3CF03
:1007C00001F0040E01C0E9FFEA6EEF6A46EF04F0A3
:1007D000979196BF9781969F97A110D09651080D3B
:1007E000F350040F016E040E036ED8B0032A01C04B
:1007F000E9FF03C0EAFF840EEF6E0AD09651080DA0
:10080000F3CF01F0040E01C0E9FFEA6E840EEF6E33
:100810004CEF04F0979196BF9781969F97A110D0C7
:100820009651080DF350040F016E040E036ED8B0FC
:10083000032A01C0E9FF03C0EAFFEFCF98F00AD016
:100840009651080DF3CF01F0040E01C0E9FFEA6EE6
:10085000EFCF98F098AF02D098B502D0000E01D03B
:10086000010E016E56EF04F004C596F069D70152EF
:1008700029E005010151010A000105E0020A09E031
:10088000030A0DE01DD004C596F081D7996B15DDE4
:1008900019D004C596F09CD7996B0FDD13D00501D4
:1008A000406B416B04C596F00001B4D7015204E0DF
:1008B000010E0501406F0001020E996FFEDC02D0AF
:1008C000FFDC00D07FEF04F00501015100D00001F2
:1008D000F7DC00D07FEF04F01F6A050100517F0BA9
:1008E000000107E0010A06E0030A05E0230A04E02C
:1008F00004D085D6D6D6B8D7E7D7E2DC00D0A6EFAD
:1009000005F09651080DF3CF01F0040E01C0E9FF88
:10091000EA6EEFCF98F09751020806E198AD02D049
:10092000976B02D0010E976F9751030812E1840E66
:10093000986F9651080DF350040F016E040E036E6C
:10094000D8B0032A01C0E9FF03C0EAFF840EEF6EAE
:1009500009D0972D03D0C80E986F04D0975302E1A9
:10096000880E986F036A010E026E9651006E05E0C4
:10097000D89002360336002EFBD70250FF0A006ED5
:10098000FF0E031A0050231603502416D8909635F4
:10099000036AF2CF9BF0F29E5FEC00F00900F5CF06
:1009A00003F09BBFF28E996F03C09AF09651080D29
:1009B000F350010F016E040E036ED8B0032A01C07C
:1009C000E9FF03C0EAFF99C0EFFF9AB198819AB39B
:1009D00098839651080DF3CF01F0040E01C0E9FF92
:1009E000EA6E98C0EFFF000C9651080DF350040F0B
:1009F000016E040E036ED8B0032A01C0E9FF03C0E4
:100A0000EAFFEFCF9AF09ABF5BD09651080DF350F2
:100A1000050F016E040E036ED8B0032A01C0E9FF72
:100A200003C0EAFF97C0EFFF9951020816E1965103
:100A3000080DF350040F016E040E036ED8B0032AA4
:100A400001C0E9FF03C0EAFFEFCF9AF09AAD02D0F0
:100A5000996B02D0010E996F13D09951040810E1DF
:100A60009651080DF3CF01F0040E01C0E9FFEA6EC4
:100A7000EFCF9AF09AAD03D0010E996F01D0996B28
:100A8000992D03D0C80E9A6F04D0995302E1880EB5
:100A90009A6F98B19A8198B39A839651080DF35042
:100AA000040F016E040E036ED8B0032A01C0E9FFE3
:100AB00003C0EAFF9AC0EFFF010E016E03D000D021
:100AC000000E016E000C965303E12AEC01F00FD0EA
:100AD000036A010E026E9651006E05E0D890023650
:100AE0000336002EFBD70250231203502412000CB1
:100AF00097C06EFF975303E0040E256E02D0020EDE
:100B0000256E88EF05F0206A1F6A2AC097F0F0D79B
:100B100095EF05F0965309E11F2C03D063EC01F02B
:100B200004D01F50020801E1EED7000C6C30956F25
:100B3000953395331F0E95176C523BE1040100511C
:100B40003C0B34081BE1046B0001C6D6263C05D0E3
:100B5000966B030E976FD5DE0ED0966B020E976FD5
:100B6000D0DE2650FE0807E0966B986B26C097F003
:100B7000040E996F39DF6D9819D0040100513C0BB8
:100B8000040815E10001966B9EDF966B020E976FCD
:100B9000B8DE2650FE080AE0263C01D007D0966B4E
:100BA000986B26C097F0010E996F1EDF040120D0CC
:100BB00000016C50040812E1FF0E266E966BAADF4E
:100BC000263C01D008D0966B986B26C097F0020E99
:100BD000996F0ADF02D02AEC01F009D06CB404D07E
:100BE00095C096F070DF03D095C096F093DF0401B6
:100BF00000012CEF06F0255201E12FD068522DE0C4
:100C000068A404D069A402D0F9EF00F06DA201D06D
:100C100024D068A204D069A202D0FEEF00F068A040
:100C200004D069A002D039EF01F068A804D069A807
:100C300002D04EEF01F068AC04D069AC02D053EFA3
:100C400001F068AA04D069AA02D056EF01F068A6A4
:100C500004D069A602D06AD76896A19A2CEF00F05A
:100C600094908B8094928B8294948B84939A8A8AAA
:100C700093988A986E6B000C6D6A696A080E6F6EA5
:100C800094503009946E256A186AF2BE188EF29E4E
:100C900002EC01F018BEF28E246A236A74EF06F0AB
:100CA000186AF2BE188EF29E02EC01F018BEF28EA7
:100CB0006D6A140E6F6E696A6D86010E256E64EFA3
:100CC00006F06DB601D0ECD7252C0BD06DBA09D04B
:100CD000686A696AA08AC00EF212110E696E020E6D
:100CE000256E75EF06F0C8D7ECD725500208FCE159
:100CF000F1EF09F08551080DF350020F016E040E5B
:100D0000036ED8B0032A01C0E9FF03C0EAFFECCFAD
:100D100003F0ED52EFCF8AF003C08BF08551080D40
:100D2000F350010F016E040E036ED8B0032A01C008
:100D3000E9FF03C0EAFFEF50036A8D6F03C08EF036
:100D40008551080DF3CF01F0040E01C0E9FFEA6EF2
:100D5000EFCF8CF08CB18E818CB38E838E51895DF8
:100D600008E303E188518D5D04E28EC089F08DC0F7
:100D700088F08E6B8D6B8E51895D1AE303E188518B
:100D80008D5D16E28AC0E9FF8BC0EAFFEFCF91F0DC
:100D900087C0EAFF86C0E9FF91C0EFFF862BD8B479
:100DA000872B8A2BD8B48B2B8D2BD8B48E2BE3D7E3
:100DB00088C001F089C002F0E9EF06F080C085F03C
:100DC00082C087F081C086F084C089F083C088F03B
:100DD00091D702C084F001C083F0186AF2BE188E69
:100DE000F29E80C096F0020E976F8BDD18BEF28ED9
:100DF00083C001F084C002F050EF07F0EA6A800E71
:100E0000E96EEF500EE00F0E016E006A002EFED765
:100E1000012EFBD78F0E006E002EFED70000EF2EA6
:100E2000F2D7000C766B776BD8906F35036AF2CFF0
:100E300080F0F29E5FEC00F00900F5CF03F080BF78
:100E4000F28E7C6F03C07DF07D51735D09E303E199
:100E500072517C5D05E27DC07FF07CC07EF004D0E5
:100E600073C07FF072C07EF0796B786B24C003F0A2
:100E700023C002F06F51006E05E0D89003320232B9
:100E8000002EFBD7025002A01DD06FC080F071C0B1
:100E900082F070C081F07FC084F07EC083F08ED776
:100EA00002C07BF001C07AF07A5170277B51712328
:100EB0007A51725F7B51735B7A5176277B5177232E
:100EC0000DD006D0782BD8B4792B010E806F96DF29
:100ED0007451785DCBE17551795DC8E17C517A5DE3
:100EE0000CE17D517B5D09E17451785D03E1755141
:100EF000795D03E072517311A7E176C001F020EF34
:100F00000AF08D6B8E6B010E8F6FDA6AD96A926B65
:100F1000850E916FEA6A890EE96E92C0E2FF91C078
:100F2000E1FF8FC090F0D890E550EE02F3508D2392
:100F3000F4508E23902FF7D78DC0DEFF8EC08DF03A
:100F40008E6BD8B08E2B912BD8B4922B8F2B8F51C8
:100F50000508E0E1000C8351080DF350040F016E09
:100F6000040E036ED8B0032A01C0E9FF03C0EAFFF4
:100F7000EFCF8BF08BBF45D08351080DF350060F98
:100F8000016E040E036ED8B0032A01C0E9FF03C04E
:100F9000EAFFECCF03F0ED52EFCF8CF003C08DF001
:100FA0008A6B896B8A51875D1AE303E18651895DFB
:100FB00016E284C0E9FF85C0EAFFEFCF90F08DC054
:100FC000EAFF8CC0E9FF90C0EFFF8C2BD8B48D2BCB
:100FD000842BD8B4852B892BD8B48A2BE3D7186AF5
:100FE000F2BE188EF29E83C096F087C098F086C03D
:100FF00097F088C099F0F8DC18BEF28E015003D04B
:1010000000D0000E016E000C766B776BD8907035B7
:10101000036AF2CF81F0F29E5FEC00F00900F5CF99
:1010200003F081BFF28E7B6F03C07CF07751745D5B
:10103000D8A06BD003E17351765D67E2846B836B5C
:10104000826B75C081F084C088F083C087F082C055
:1010500086F075C085F08C6B8B6B030E8A6FE80E83
:10106000896F4FDF03C080F002C07FF001C07EF0C7
:1010700000C07DF07651735D816F77517459826F36
:101080007C51825D09E303E181517B5D05E27CC017
:101090007AF07BC079F006D07651735D796F775125
:1010A00074597A6F76517125816F77517221826FF1
:1010B00070C083F0856F81C084F07AC087F079C0FA
:1010C00086F0020E886F47DF789101B0788178B1A1
:1010D0000DD0030E006E002EFED700D0FF0E7D2730
:1010E000D8A07E27D8A07F27D8A0802778B108D0A5
:1010F0007D53D8E17E53D6E17F53D4E18053D2E1D2
:101100007B5176277C51772391D77351765D44E1EB
:101110007451775D41E1846B836B826B75C081F0A4
:1011200084C088F083C087F082C086F075C085F0E7
:101130008C6B8B6B030E8A6FE80E896FE2DE03C047
:1011400080F002C07FF001C07EF000C07DF070C072
:1011500083F0856B846B876B866B020E886FFBDE7A
:10116000789101B0788178B10DD0030E006E002E19
:10117000FED700D0FF0E7D27D8A07E27D8A07F27DE
:10118000D8A0802778B108D07D53E1E17E53DFE11C
:101190007F53DDE18053DBE1000E78B1010E016E7B
:1011A000000C92988988716B7051715D05E2030E95
:1011B000806F24DE712BF8D792988998000C2E50FE
:1011C000710A1DE0100A29E0070A34E0140A45E01C
:1011D000010A56E00B0A64E0010AD8B471D01D0A76
:1011E000D8B47ED0130AD8B490D0460AD8B4A2D0CE
:1011F000030AD8B4B4D0010AD8B4C6D0DAD06EC0CD
:101200002EF0010E706F726B2E0E716F746B400EAC
:10121000736F640E756FF8DECCD022DD010E706F37
:10122000726B2E0E716F746B400E736F640E756F60
:10123000EBDEBFD02FC06FF0010E706F726B2E0E01
:10124000716F746B400E736F640E756FDDDE929A72
:10125000899A6FC070F0A5DFACD02FC06FF0010E7F
:10126000706F726B2E0E716F746B400E736F640E25
:10127000756FCADE929A898A6FC070F092DF99D03A
:101280002FC06FF0010E706F726B2E0E716F746B4A
:10129000400E736F640E756FB7DE9298899889D08F
:1012A000010E706F726B2E0E716F746B400E736F48
:1012B000640E756FA9DE929A899A9298898879D07E
:1012C000010E706F726B2E0E716F746B400E736F28
:1012D000640E756F99DE929A898A9298898869D08E
:1012E0006EA104D093988A986E9103D093988A88BF
:1012F0006E81010E706F726B2E0E716F746B400EEB
:10130000736F640E756F80DE54D06EA304D0939A11
:101310008A8A6E9303D0939A8A9A6E83010E706FB5
:10132000726B2E0E716F746B400E736F640E756F5F
:101330006BDE3FD06EA504D094908B806E9503D069
:1013400094908B906E85010E706F726B2E0E716F84
:10135000746B400E736F640E756F56DE2AD06EA7E5
:1013600004D094928B826E9703D094928B926E8766
:10137000010E706F726B2E0E716F746B400E736F77
:10138000640E756F41DE15D06EA904D094948B84E1
:101390006E9903D094948B946E89010E706F726B6A
:1013A0002E0E716F746B400E736F640E756F2CDEB2
:1013B00000D021EF0AF0F86AD09E0D8EEA6AE96A41
:1013C000C150C00B0F09C16E070EB46E196A1A6ABC
:1013D000256A276A040E286E0C0E296E2C6A40DCE2
:1013E00082D4C150C00B0F09C16EC69A949E9380DF
:1013F0009392000EC66EC76E800ED56ECD6A000E3B
:10140000CA6E000ECB6E070EB46E9250270E006EA1
:10141000002EFED700D0B450A19CB56AD36AD35039
:1014200020520FE023A20DD0010E6F6F716B2E0EB4
:10143000706F736B400E726F756B640E746FF2D4C5
:06144000BED6EED703004A
:020000040030CA
:0E000000240E3E1E008381000FC00FE00F4053
:00000001FF
;PIC18F2455
