:020000040000FA
:04000000B8EF07F05E
:08000800056ED8CF06F0E0CF31
:1000100007F00001E9CF0DF0EACF08F0E1CF09F0D9
:10002000E2CF0AF0D9CF0BF0DACF0CF0F3CF14F017
:10003000F4CF15F0FACF16F000C00FF001C010F0A9
:1000400002C011F003C012F004C013F0A0AA2CEFFC
:1000500000F0A1BAFBEF05F00FC000F010C001F0F6
:1000600011C002F012C003F013C004F00E8E0DC0D8
:10007000E9FF08C0EAFF09C0E1FF0AC0E2FF0BC0C8
:10008000D9FF0CC0DAFF14C0F3FF15C0F4FF16C08F
:10009000FAFF055007C0E0FF06C0D8FF1000F76A5E
:1000A000AE0FF66E000EF7220900F55012000403A1
:1000B00000000000000000000000000000000DAE85
:1000C00003D0F2CF0EF0F29EF76AE00FF66E000E4C
:1000D000F7220900F5500DAE02D00EBEF28E1200CE
:1000E0004000400000000000000000000000000090
:1000F0000000000000000000000000000000000000
:10010000F76A100FF66E010EF7220900F550120083
:100110000600FF0901A101190129081580257F7535
:10012000089540810219012908750895409102C07F
:10013000F76A400FF66E010EF7220900F550120023
:100140000000F76A520FF66E010EF7220900F55013
:1001500012002000F76A640FF66E010EF722090004
:10016000F550120009022900010100C03209040003
:100170000002030000000921000100012220000705
:1001800005810340000A0705010340000A00F76AE1
:100190009E0FF66E010EF7220900F55012000100C5
:1001A000F76AB00FF66E010EF7220900F550120043
:1001B000120110010000004061040400000101026E
:1001C0000001F76AD20FF66E010EF7220900F55012
:1001D00012000403000408035A0057004C001403E3
:1001E00049004E00430055004D004F0054004F00A1
:1001F00052006D926994689406EF06F06A6A6892FC
:100200000FEF06F0966B96530AE1036A96512D0F95
:10021000E96E000E0320EA6EEF6A962BF4D7206A8F
:10022000010E216E1F6A000C010E9F6F9F510F0877
:100230000EE3700E9F25016E0F0E036ED8B0032AD9
:1002400001C0E9FF03C0EAFFEF6A9F2BEFD7246AE2
:10025000236A000C400E0401016F050E036F026B50
:10026000880E006F046B050E076F400E066F0001CD
:10027000000C6A6A686A9F0E6B6E390E696E6E6A50
:10028000C1DFD2DF160E706E68A602D06896FCD76A
:100290006D98E0DF030E256E15EF06F0698468980F
:1002A0006D821BEF06F0689C21EF06F070A002D073
:1002B000D1DF7090689A27EF06F09AC026F0000C04
:1002C000FF0E266E000C986B2C523EE098513F08B2
:1002D0003BE32250FC0F2BE2040FAEEF01F0036A68
:1002E0002B50F2CF9AF0F29E35DF9ABFF28E996FC3
:1002F0001ED0036A2B50F2CF9AF0F29E01DF9ABF14
:10030000F28E996F14D0036A2B50F2CF9AF0F29EBE
:1003100058DF9ABFF28E996F0AD0036A2B50F2CF42
:100320009AF0F29E3DDF9ABFF28E996F00D02B2A91
:100330002C069851982B036A400FE96E050E032096
:10034000EA6E99C0EFFFC0D72C5204E198514008E3
:1003500001E01F6A98C09AF0B0DF000CE824F76A49
:10036000F736770FF66E030EF7220A00F550FA6E95
:100370000800F550F96EDE02F20206031A032B6A3A
:10038000226A05010351010A000109E0030A0CE099
:10039000010A0DE0220A22E0030A32E058D0120ED0
:1003A0002C6E030E226E55D0290E2C6E52D0020EEA
:1003B000226E036A05010251270FE96E000E032029
:1003C000EA6EEFCF2BF0036A2B50F2CF98F0F29E3B
:1003D0000001F7DE98BFF28E2C6E3BD0120E2B6E12
:1003E0002B3C01D00BD0036A2B50F2CF98F0F29E39
:1003F000B1DE98BFF28E2C6E2CD002D061DF35D0EA
:10040000D89005010435036AF2CF98F0F29E0001FE
:100410008FDE0900F5CF03F098BFF28E2B6E2B3CD8
:1004200001D013D0010E226ED89005010435036A65
:10043000F2CF98F0F29E000184DE0900F5CF03F0C0
:1004400098BFF28E2C6E05D002D03ADF0ED038DF86
:100450000CD00501075305E12C50065D02E206C5EC
:100460002CF0010E1F6E00012EDF000C975304E1EB
:10047000040E256ED9DEC1D0050E256E9A6F800E52
:10048000996F010E986F98510F08D8A0B6D09B6B4A
:10049000036A9851F2CF9FF0F29E01DE9FBFF28E69
:1004A000000A51E0040E9B6FD8909835036AF2CF92
:1004B0009FF0F29E04DE0900F5CF03F09FBFF28E9D
:1004C0009C6F03C09DF09851080DF350010F016E11
:1004D000040E036ED8B0032A01C0E9FF03C0EAFF8F
:1004E0009CC0EFFF9851080DF350020F016E040EEF
:1004F000036ED8B0032A01C0E9FF03C0EAFF9AC027
:10050000ECFFED5299C0EFFFD8909835036AF2CF17
:100510009FF0F29ED4DD0900F5CF03F09FBFF28E6D
:10052000992703509A23880E9E6F9DB19E819DB39B
:100530009E839851080DF3CF01F0040E01C0E9FF2E
:10054000EA6E9EC0EFFF036A9851F2CF9FF0F29ED1
:10055000A6DD9FBFF28E000A31E09B839851080D03
:10056000F350060F016E040E036ED8B0032A01C0CB
:10057000E9FF03C0EAFF9AC0ECFFED5299C0EFFF1C
:10058000D8909835036AF2CF9FF0F29E98DD09006B
:10059000F5CF03F09FBFF28E992703509A2398510D
:1005A000080DF350040F016E040E036ED8B0032A39
:1005B00001C0E9FF03C0EAFF400EEF6E9B51060841
:1005C00002E10E0E9B6F036A9851F2CF9FF0F29EEC
:1005D00066DD9FBFF28E020801E09B89700E9825B0
:1005E000016E0F0E036ED8B0032A01C0E9FF03C0ED
:1005F000EAFF9BC0EFFF982B46D749EF03F00501B8
:10060000015100010DE0010A14E0020A1EE0060A91
:1006100027E0030A2CE00E0A2CE0010A30E03DD06E
:1006200021C040F50501416B020E00019A6F45DEC5
:1006300036D00501022D06D0010E211600019A6B5D
:100640003CDE02D000013CDE2AD00501022D05D09F
:10065000218200019A6B31DE02D0000131DE1FD011
:10066000020E1F6E02C52AF09A6B27DE18D087DEB5
:1006700016D020C040F5010E9A6F1FDE10D0050184
:100680000251010808E302C520F002C597F00001FD
:10069000EDD69A6B12DE000102D012DE00D07FEFA1
:1006A00004F020C097F005010151000107E00A0A9B
:1006B0000DE0010A2DE00D0A3DE03ED00501406B42
:1006C000416B020E00019A6FF8DD38D097531EE09F
:1006D000010E975D036AF2CF99F0F29E58DD99BF43
:1006E000F28E016E0501045DD8A002D000010ED08B
:1006F000036A04512D0FE96E000E0320EA6EEFCF5E
:1007000040F5010E00019A6FD8DD01D0D9DD16D079
:1007100097530EE0036A050104512D0FE96E000E98
:100720000320EA6E02C5EFFF00019A6BC6DD01D01F
:10073000C7DD04D024DE02D0C3DD00D07FEF04F09B
:10074000989197BF9881979F98A110D0036A97516D
:10075000F2CF99F0F29EA3DC99BFF28E000A02E17B
:10076000000E01D0010E016E10D00FD0036A975118
:10077000F2CF99F0F29E93DC99BFF28E000A02E16B
:10078000000E01D0010E016E00D037EF04F09891F9
:1007900097BF9881979F98A110D09751080DF3505B
:1007A000040F016E040E036ED8B0032A01C0E9FFE6
:1007B00003C0EAFF880EEF6E09D09751080DF3CF02
:1007C00001F0040E01C0E9FFEA6EEF6A46EF04F0A3
:1007D000989197BF9881979F98A110D09751080D35
:1007E000F350040F016E040E036ED8B0032A01C04B
:1007F000E9FF03C0EAFF840EEF6E0AD09751080D9F
:10080000F3CF01F0040E01C0E9FFEA6E840EEF6E33
:100810004CEF04F0989197BF9881979F98A110D0C2
:100820009751080DF350040F016E040E036ED8B0FB
:10083000032A01C0E9FF03C0EAFFEFCF99F00AD015
:100840009751080DF3CF01F0040E01C0E9FFEA6EE5
:10085000EFCF99F099AF02D099B502D0000E01D038
:10086000010E016E56EF04F004C597F069D70152EE
:1008700029E005010151010A000105E0020A09E031
:10088000030A0DE01DD004C597F081D79A6B15DDE2
:1008900019D004C597F09CD79A6B0FDD13D00501D2
:1008A000406B416B04C597F00001B4D7015204E0DE
:1008B000010E0501406F0001020E9A6FFEDC02D0AE
:1008C000FFDC00D07FEF04F00501015100D00001F2
:1008D000F7DC00D07FEF04F01F6A050100517F0BA9
:1008E000000107E0010A06E0030A05E0230A04E02C
:1008F00004D085D6D6D6B8D7E7D7E2DC00D0A6EFAD
:1009000005F09751080DF3CF01F0040E01C0E9FF87
:10091000EA6EEFCF99F09851020806E199AD02D046
:10092000986B02D0010E986F9851030812E1840E63
:10093000996F9751080DF350040F016E040E036E6A
:10094000D8B0032A01C0E9FF03C0EAFF840EEF6EAE
:1009500009D0982D03D0C80E996F04D0985302E1A6
:10096000880E996F036A010E026E9751006E05E0C2
:10097000D89002360336002EFBD70250FF0A006ED5
:10098000FF0E031A0050231603502416D8909735F3
:10099000036AF2CF9CF0F29E5FEC00F00900F5CF05
:1009A00003F09CBFF28E9A6F03C09BF09751080D25
:1009B000F350010F016E040E036ED8B0032A01C07C
:1009C000E9FF03C0EAFF9AC0EFFF9BB199819BB397
:1009D00099839751080DF3CF01F0040E01C0E9FF90
:1009E000EA6E99C0EFFF000C9751080DF350040F09
:1009F000016E040E036ED8B0032A01C0E9FF03C0E4
:100A0000EAFFEFCF9BF09BBF5BD09751080DF350EF
:100A1000050F016E040E036ED8B0032A01C0E9FF72
:100A200003C0EAFF98C0EFFF9A51020816E1975100
:100A3000080DF350040F016E040E036ED8B0032AA4
:100A400001C0E9FF03C0EAFFEFCF9BF09BAD02D0EE
:100A50009A6B02D0010E9A6F13D09A51040810E1DC
:100A60009751080DF3CF01F0040E01C0E9FFEA6EC3
:100A7000EFCF9BF09BAD03D0010E9A6F01D09A6B24
:100A80009A2D03D0C80E9B6F04D09A5302E1880EB2
:100A90009B6F99B19B8199B39B839751080DF3503C
:100AA000040F016E040E036ED8B0032A01C0E9FFE3
:100AB00003C0EAFF9BC0EFFF010E016E03D000D020
:100AC000000E016E000C975303E12AEC01F00FD0E9
:100AD000036A010E026E9751006E05E0D89002364F
:100AE0000336002EFBD70250231203502412000CB1
:100AF00098C06EFF985303E0040E256E02D0020EDC
:100B0000256E88EF05F0206A1F6A2AC098F0F0D79A
:100B100095EF05F0975309E11F2C03D063EC01F02A
:100B200004D01F50020801E1EED7000C6C30966F24
:100B3000963396331F0E96176C523BE10401005119
:100B40003C0B34081BE1046B0001C6D6263C05D0E3
:100B5000976B030E986FD5DE0ED0976B020E986FD1
:100B6000D0DE2650FE0807E0976B996B26C098F000
:100B7000040E9A6F39DF6D9819D0040100513C0BB7
:100B8000040815E10001976B9EDF976B020E986FCA
:100B9000B8DE2650FE080AE0263C01D007D0976B4D
:100BA000996B26C098F0010E9A6F1EDF040120D0C9
:100BB00000016C50040812E1FF0E266E976BAADF4D
:100BC000263C01D008D0976B996B26C098F0020E96
:100BD0009A6F0ADF02D02AEC01F009D06CB404D07D
:100BE00096C097F070DF03D096C097F093DF0401B2
:100BF00000012CEF06F0255201E12FD068522DE0C4
:100C000068A404D069A402D0F9EF00F06DA201D06D
:100C100024D068A204D069A202D0FEEF00F068A040
:100C200004D069A002D039EF01F068A804D069A807
:100C300002D04EEF01F068AC04D069AC02D053EFA3
:100C400001F068AA04D069AA02D056EF01F068A6A4
:100C500004D069A602D06AD76896A19A2CEF00F05A
:100C60006D6A696A080E6F6E94503009946E256A39
:100C7000186AF2BE188EF29E02EC01F018BEF28ED7
:100C8000246A236A68EF06F0186AF2BE188EF29E94
:100C900002EC01F018BEF28E6D6A140E6F6E696A76
:100CA0006D86010E256E58EF06F06DB601D0ECD7BB
:100CB000252C0BD06DBA09D0686A696AA08AC00E6B
:100CC000F212110E696E020E256E69EF06F0C8D79A
:100CD000ECD725500208FCE1CDEF07F0EA6A840E5C
:100CE000E96EEF500EE00F0E016E006A002EFED787
:100CF000012EFBD78F0E006E002EFED70000EF2EC8
:100D0000F2D7000C8951080DF350020F016E040E4A
:100D1000036ED8B0032A01C0E9FF03C0EAFFECCF9D
:100D200003F0ED52EFCF8EF003C08FF08951080D24
:100D3000F350010F016E040E036ED8B0032A01C0F8
:100D4000E9FF03C0EAFFEF50036A916F03C092F01E
:100D50008951080DF3CF01F0040E01C0E9FFEA6EDE
:100D6000EFCF90F090B1928190B3928392518D5DCC
:100D700008E303E18C51915D04E292C08DF091C0D3
:100D80008CF0926B916B92518D5D1AE303E18C5163
:100D9000915D16E28EC0E9FF8FC0EAFFEFCF95F0BC
:100DA0008BC0EAFF8AC0E9FF95C0EFFF8A2BD8B459
:100DB0008B2B8E2BD8B48F2B912BD8B4922BE3D7BF
:100DC0008CC001F08DC002F0F1EF06F084C089F014
:100DD00086C08BF085C08AF088C08DF087C08CF00B
:100DE00091D702C088F001C087F0186AF2BE188E51
:100DF000F29E84C097F0020E986F83DD18BEF28ECB
:100E000087C001F088C002F044EF07F07A6B7B6B7B
:100E1000D8907335036AF2CF84F0F29E5FEC00F055
:100E20000900F5CF03F084BFF28E806F03C081F01C
:100E30008151775D09E303E17651805D05E281C070
:100E400083F080C082F004D077C083F076C082F057
:100E50007D6B7C6B24C003F023C002F07351006EE5
:100E600005E0D89003320232002EFBD7025002A0D8
:100E70001DD073C084F075C086F074C085F083C047
:100E800088F082C087F0A2D702C07FF001C07EF058
:100E90007E5174277F5175237E51765F7F51775B3A
:100EA0007E517A277F517B230DD006D07C2BD8B47E
:100EB0007D2B010E846F12DF78517C5DCBE179517F
:100EC0007D5DC8E180517E5D0CE181517F5D09E16E
:100ED00078517C5D03E179517D5D03E076517711B6
:100EE000A7E17AC001F0000C939E8A8E2FC074F0A7
:100EF000742B7407D8B404D0FF0E846FEFDEF9D7DB
:100F00002EC084F0EBDE939E8A9E2FC074F0742B6B
:100F10007407D8B404D0FF0E846FE0DEF9D72EC07A
:100F200084F0DCDEAFEF07F03050000A03E0010A86
:100F300004E006D0939A8A9A03D0939A8A8A00D0C2
:100F4000726B716B725313E13250715D10E2726B10
:100F5000716B725308E13150715D05E2C5D7712B99
:100F6000D8B4722BF6D7712BD8B4722BEBD7000CF8
:100F7000F86AD09E0D8EEA6AE96AC150C00B0F096B
:100F8000C16E070EB46E196A1A6A256A276A040EC2
:100F9000286E0C0E296E2C6A9AD6C150C00B0F0910
:100FA000C16EC69A949E93809392000EC66EC76ED1
:100FB000800ED56ECD6A000ECA6E000ECB6E070E87
:100FC000B46E9250270E006E002EFED700D0B450A3
:100FD000A19CB56AD36AD3502F6A040E2E6E939AE1
:100FE0008A8A939C8A9C939E8A9E938C81AC32D0F1
:100FF000939C8A8C939E8A8E2FC073F0732B7307F9
:10100000D8B404D0FF0E846F69DEF9D72EC084F007
:1010100065DE939E8A9E2FC073F0732B7307D8B43E
:1010200004D0FF0E846F5ADEF9D72EC084F056DE4E
:1010300020520FE023A20DD0010E736F756B300E9E
:10104000746F776B400E766F796B640E786FDEDEAF
:101050006BDFCBD7939C8A9C20520FE023A20DD04C
:10106000010E736F756B300E746F776B400E766F79
:0E107000796B640E786FCADE57DFB5D70300C8
:020000040030CA
:0E000000240E3E1E008381000FC00FE00F4053
:00000001FF
;PIC18F2455
