:020000040000FA
:04000000ADEF07F069
:08000800056ED8CF06F0E0CF31
:1000100007F00001E9CF0DF0EACF08F0E1CF09F0D9
:10002000E2CF0AF0D9CF0BF0DACF0CF0F3CF14F017
:10003000F4CF15F0FACF16F000C00FF001C010F0A9
:1000400002C011F003C012F004C013F0A0AA2CEFFC
:1000500000F0A1BAFBEF05F00FC000F010C001F0F6
:1000600011C002F012C003F013C004F00E8E0DC0D8
:10007000E9FF08C0EAFF09C0E1FF0AC0E2FF0BC0C8
:10008000D9FF0CC0DAFF14C0F3FF15C0F4FF16C08F
:10009000FAFF055007C0E0FF06C0D8FF1000F76A5E
:1000A000AE0FF66E000EF7220900F55012000403A1
:1000B00000000000000000000000000000000DAE85
:1000C00003D0F2CF0EF0F29EF76AE00FF66E000E4C
:1000D000F7220900F5500DAE02D00EBEF28E1200CE
:1000E0004000400000000000000000000000000090
:1000F0000000000000000000000000000000000000
:10010000F76A100FF66E010EF7220900F550120083
:100110000600FF0901A101190129081580257F7535
:10012000089540810219012908750895409102C07F
:10013000F76A400FF66E010EF7220900F550120023
:100140000000F76A520FF66E010EF7220900F55013
:1001500012002000F76A640FF66E010EF722090004
:10016000F550120009022900010100C03209040003
:100170000002030000000921000100012220000705
:1001800005810340000A0705010340000A00F76AE1
:100190009E0FF66E010EF7220900F55012000100C5
:1001A000F76AB00FF66E010EF7220900F550120043
:1001B000120110010000004061040400000101026E
:1001C0000001F76AD20FF66E010EF7220900F55012
:1001D00012000403000408035A0057004C001403E3
:1001E00049004E0043005500530043004F005000AB
:1001F00045006D926994689406EF06F06A6A689209
:100200000FEF06F0926B92530AE1036A92512D0FA1
:10021000E96E000E0320EA6EEF6A922BF4D7206A93
:10022000010E216E1F6A000C010E9B6F9B510F087F
:100230000EE3700E9B25016E0F0E036ED8B0032ADD
:1002400001C0E9FF03C0EAFFEF6A9B2BEFD7246AE6
:10025000236A000C400E0401016F050E036F026B50
:10026000880E006F046B050E076F400E066F0001CD
:10027000000C6A6A686A9F0E6B6E390E696E6E6A50
:10028000C1DFD2DF160E706E68A602D06896FCD76A
:100290006D98E0DF030E256E15EF06F0698468980F
:1002A0006D821BEF06F0689C21EF06F070A002D073
:1002B000D1DF7090689A27EF06F096C026F0000C08
:1002C000FF0E266E000C946B2C523EE094513F08BA
:1002D0003BE32250FC0F2BE2040FAEEF01F0036A68
:1002E0002B50F2CF96F0F29E35DF96BFF28E956FCF
:1002F0001ED0036A2B50F2CF96F0F29E01DF96BF1C
:10030000F28E956F14D0036A2B50F2CF96F0F29EC6
:1003100058DF96BFF28E956F0AD0036A2B50F2CF4A
:1003200096F0F29E3DDF96BFF28E956F00D02B2A9D
:100330002C069451942B036A400FE96E050E03209E
:10034000EA6E95C0EFFFC0D72C5204E194514008EB
:1003500001E01F6A94C096F0B0DF000CE824F76A51
:10036000F736770FF66E030EF7220A00F550FA6E95
:100370000800F550F96EDE02F20206031A032B6A3A
:10038000226A05010351010A000109E0030A0CE099
:10039000010A0DE0220A22E0030A32E058D0120ED0
:1003A0002C6E030E226E55D0290E2C6E52D0020EEA
:1003B000226E036A05010251270FE96E000E032029
:1003C000EA6EEFCF2BF0036A2B50F2CF94F0F29E3F
:1003D0000001F7DE94BFF28E2C6E3BD0120E2B6E16
:1003E0002B3C01D00BD0036A2B50F2CF94F0F29E3D
:1003F000B1DE94BFF28E2C6E2CD002D061DF35D0EE
:10040000D89005010435036AF2CF94F0F29E000102
:100410008FDE0900F5CF03F094BFF28E2B6E2B3CDC
:1004200001D013D0010E226ED89005010435036A65
:10043000F2CF94F0F29E000184DE0900F5CF03F0C4
:1004400094BFF28E2C6E05D002D03ADF0ED038DF8A
:100450000CD00501075305E12C50065D02E206C5EC
:100460002CF0010E1F6E00012EDF000C935304E1EF
:10047000040E256ED9DEC1D0050E256E966F800E56
:10048000956F010E946F94510F08D8A0B6D0976B5A
:10049000036A9451F2CF9BF0F29E01DE9BBFF28E75
:1004A000000A51E0040E976FD8909435036AF2CF9A
:1004B0009BF0F29E04DE0900F5CF03F09BBFF28EA5
:1004C000986F03C099F09451080DF350010F016E1D
:1004D000040E036ED8B0032A01C0E9FF03C0EAFF8F
:1004E00098C0EFFF9451080DF350020F016E040EF7
:1004F000036ED8B0032A01C0E9FF03C0EAFF96C02B
:10050000ECFFED5295C0EFFFD8909435036AF2CF1F
:100510009BF0F29ED4DD0900F5CF03F09BBFF28E75
:10052000952703509623880E9A6F99B19A8199B3B3
:100530009A839451080DF3CF01F0040E01C0E9FF36
:10054000EA6E9AC0EFFF036A9451F2CF9BF0F29EDD
:10055000A6DD9BBFF28E000A31E097839451080D0F
:10056000F350060F016E040E036ED8B0032A01C0CB
:10057000E9FF03C0EAFF96C0ECFFED5295C0EFFF24
:10058000D8909435036AF2CF9BF0F29E98DD090073
:10059000F5CF03F09BBFF28E95270350962394511D
:1005A000080DF350040F016E040E036ED8B0032A39
:1005B00001C0E9FF03C0EAFF400EEF6E9751060845
:1005C00002E10E0E976F036A9451F2CF9BF0F29EF8
:1005D00066DD9BBFF28E020801E09789700E9425BC
:1005E000016E0F0E036ED8B0032A01C0E9FF03C0ED
:1005F000EAFF97C0EFFF942B46D749EF03F00501C0
:10060000015100010DE0010A14E0020A1EE0060A91
:1006100027E0030A2CE00E0A2CE0010A30E03DD06E
:1006200021C040F50501416B020E0001966F45DEC9
:1006300036D00501022D06D0010E21160001966B61
:100640003CDE02D000013CDE2AD00501022D05D09F
:1006500021820001966B31DE02D0000131DE1FD015
:10066000020E1F6E02C52AF0966B27DE18D087DEB9
:1006700016D020C040F5010E966F1FDE10D0050188
:100680000251010808E302C520F002C593F0000101
:10069000EDD6966B12DE000102D012DE00D07FEFA5
:1006A00004F020C093F005010151000107E00A0A9F
:1006B0000DE0010A2DE00D0A3DE03ED00501406B42
:1006C000416B020E0001966FF8DD38D093531EE0A7
:1006D000010E935D036AF2CF95F0F29E58DD95BF4F
:1006E000F28E016E0501045DD8A002D000010ED08B
:1006F000036A04512D0FE96E000E0320EA6EEFCF5E
:1007000040F5010E0001966FD8DD01D0D9DD16D07D
:1007100093530EE0036A050104512D0FE96E000E9C
:100720000320EA6E02C5EFFF0001966BC6DD01D023
:10073000C7DD04D024DE02D0C3DD00D07FEF04F09B
:10074000949193BF9481939F94A110D0036A935185
:10075000F2CF95F0F29EA3DC95BFF28E000A02E183
:10076000000E01D0010E016E10D00FD0036A93511C
:10077000F2CF95F0F29E93DC95BFF28E000A02E173
:10078000000E01D0010E016E00D037EF04F09491FD
:1007900093BF9481939F94A110D09351080DF3506F
:1007A000040F016E040E036ED8B0032A01C0E9FFE6
:1007B00003C0EAFF880EEF6E09D09351080DF3CF06
:1007C00001F0040E01C0E9FFEA6EEF6A46EF04F0A3
:1007D000949193BF9481939F94A110D09351080D4D
:1007E000F350040F016E040E036ED8B0032A01C04B
:1007F000E9FF03C0EAFF840EEF6E0AD09351080DA3
:10080000F3CF01F0040E01C0E9FFEA6E840EEF6E33
:100810004CEF04F0949193BF9481939F94A110D0D6
:100820009351080DF350040F016E040E036ED8B0FF
:10083000032A01C0E9FF03C0EAFFEFCF95F00AD019
:100840009351080DF3CF01F0040E01C0E9FFEA6EE9
:10085000EFCF95F095AF02D095B502D0000E01D044
:10086000010E016E56EF04F004C593F069D70152F2
:1008700029E005010151010A000105E0020A09E031
:10088000030A0DE01DD004C593F081D7966B15DDEA
:1008900019D004C593F09CD7966B0FDD13D00501DA
:1008A000406B416B04C593F00001B4D7015204E0E2
:1008B000010E0501406F0001020E966FFEDC02D0B2
:1008C000FFDC00D07FEF04F00501015100D00001F2
:1008D000F7DC00D07FEF04F01F6A050100517F0BA9
:1008E000000107E0010A06E0030A05E0230A04E02C
:1008F00004D085D6D6D6B8D7E7D7E2DC00D0A6EFAD
:1009000005F09351080DF3CF01F0040E01C0E9FF8B
:10091000EA6EEFCF95F09451020806E195AD02D052
:10092000946B02D0010E946F9451030812E1840E6F
:10093000956F9351080DF350040F016E040E036E72
:10094000D8B0032A01C0E9FF03C0EAFF840EEF6EAE
:1009500009D0942D03D0C80E956F04D0945302E1B2
:10096000880E956F036A010E026E9351006E05E0CA
:10097000D89002360336002EFBD70250FF0A006ED5
:10098000FF0E031A0050231603502416D8909335F7
:10099000036AF2CF98F0F29E5FEC00F00900F5CF09
:1009A00003F098BFF28E966F03C097F09351080D35
:1009B000F350010F016E040E036ED8B0032A01C07C
:1009C000E9FF03C0EAFF96C0EFFF97B1958197B3A7
:1009D00095839351080DF3CF01F0040E01C0E9FF98
:1009E000EA6E95C0EFFF000C9351080DF350040F11
:1009F000016E040E036ED8B0032A01C0E9FF03C0E4
:100A0000EAFFEFCF97F097BF5BD09351080DF350FB
:100A1000050F016E040E036ED8B0032A01C0E9FF72
:100A200003C0EAFF94C0EFFF9651020816E193510C
:100A3000080DF350040F016E040E036ED8B0032AA4
:100A400001C0E9FF03C0EAFFEFCF97F097AD02D0F6
:100A5000966B02D0010E966F13D09651040810E1E8
:100A60009351080DF3CF01F0040E01C0E9FFEA6EC7
:100A7000EFCF97F097AD03D0010E966F01D0966B34
:100A8000962D03D0C80E976F04D0965302E1880EBE
:100A9000976F95B1978195B397839351080DF35054
:100AA000040F016E040E036ED8B0032A01C0E9FFE3
:100AB00003C0EAFF97C0EFFF010E016E03D000D024
:100AC000000E016E000C935303E12AEC01F00FD0ED
:100AD000036A010E026E9351006E05E0D890023653
:100AE0000336002EFBD70250231203502412000CB1
:100AF00094C06EFF945303E0040E256E02D0020EE4
:100B0000256E88EF05F0206A1F6A2AC094F0F0D79E
:100B100095EF05F0935309E11F2C03D063EC01F02E
:100B200004D01F50020801E1EED7000C6C30926F28
:100B3000923392331F0E92176C523BE10401005125
:100B40003C0B34081BE1046B0001C6D6263C05D0E3
:100B5000936B030E946FD5DE0ED0936B020E946FE1
:100B6000D0DE2650FE0807E0936B956B26C094F00C
:100B7000040E966F39DF6D9819D0040100513C0BBB
:100B8000040815E10001936B9EDF936B020E946FD6
:100B9000B8DE2650FE080AE0263C01D007D0936B51
:100BA000956B26C094F0010E966F1EDF040120D0D5
:100BB00000016C50040812E1FF0E266E936BAADF51
:100BC000263C01D008D0936B956B26C094F0020EA2
:100BD000966F0ADF02D02AEC01F009D06CB404D081
:100BE00092C093F070DF03D092C093F093DF0401C2
:100BF00000012CEF06F0255201E12FD068522DE0C4
:100C000068A404D069A402D0F9EF00F06DA201D06D
:100C100024D068A204D069A202D0FEEF00F068A040
:100C200004D069A002D039EF01F068A804D069A807
:100C300002D04EEF01F068AC04D069AC02D053EFA3
:100C400001F068AA04D069AA02D056EF01F068A6A4
:100C500004D069A602D06AD76896A19A2CEF00F05A
:100C60006D6A696A080E6F6E94503009946E256A39
:100C7000186AF2BE188EF29E02EC01F018BEF28ED7
:100C8000246A236A68EF06F0186AF2BE188EF29E94
:100C900002EC01F018BEF28E6D6A140E6F6E696A76
:100CA0006D86010E256E58EF06F06DB601D0ECD7BB
:100CB000252C0BD06DBA09D0686A696AA08AC00E6B
:100CC000F212110E696E020E256E69EF06F0C8D79A
:100CD000ECD725500208FCE1C2EF07F0EA6A800E6B
:100CE000E96EEF500EE00F0E016E006A002EFED787
:100CF000012EFBD78F0E006E002EFED70000EF2EC8
:100D0000F2D7000C8551080DF350020F016E040E4E
:100D1000036ED8B0032A01C0E9FF03C0EAFFECCF9D
:100D200003F0ED52EFCF8AF003C08BF08551080D30
:100D3000F350010F016E040E036ED8B0032A01C0F8
:100D4000E9FF03C0EAFFEF50036A8D6F03C08EF026
:100D50008551080DF3CF01F0040E01C0E9FFEA6EE2
:100D6000EFCF8CF08CB18E818CB38E838E51895DE8
:100D700008E303E188518D5D04E28EC089F08DC0E7
:100D800088F08E6B8D6B8E51895D1AE303E188517B
:100D90008D5D16E28AC0E9FF8BC0EAFFEFCF91F0CC
:100DA00087C0EAFF86C0E9FF91C0EFFF862BD8B469
:100DB000872B8A2BD8B48B2B8D2BD8B48E2BE3D7D3
:100DC00088C001F089C002F0F1EF06F080C085F024
:100DD00082C087F081C086F084C089F083C088F02B
:100DE00091D702C084F001C083F0186AF2BE188E59
:100DF000F29E80C093F0020E946F83DD18BEF28ED7
:100E000083C001F084C002F044EF07F0766B776B8B
:100E1000D8906F35036AF2CF80F0F29E5FEC00F05D
:100E20000900F5CF03F080BFF28E7C6F03C07DF028
:100E30007D51735D09E303E172517C5D05E27DC084
:100E40007FF07CC07EF004D073C07FF072C07EF073
:100E5000796B786B24C003F023C002F06F51006EF1
:100E600005E0D89003320232002EFBD7025002A0D8
:100E70001DD06FC080F071C082F070C081F07FC063
:100E800084F07EC083F0A2D702C07BF001C07AF06C
:100E90007A5170277B5171237A51725F7B51735B5A
:100EA0007A5176277B5177230DD006D0782BD8B492
:100EB000792B010E806F12DF7451785DCBE1755193
:100EC000795DC8E17C517A5D0CE17D517B5D09E182
:100ED0007451785D03E17551795D03E072517311CE
:100EE000A7E176C001F0000C2E50310A13E0030A8E
:100EF00016E0010A19E0070A1AE0010A1BE0030ADA
:100F00001CE0010A1DE00F0A1EE0590A1FE0030A57
:100F100020E022D092908980929289821DD0929076
:100F200089909292899218D0939A8A8A15D0939A2E
:100F30008A9A12D0939C8A8C0FD0939C8A9C0CD056
:100F400093988A8809D093988A9806D093908A803B
:100F500003D093908A9000D0000CF86AD09E0D8E3A
:100F6000EA6AE96AC150C00B0F09C16E070EB46E80
:100F7000196A1A6A256A276A040E286E0C0E296EF1
:100F80002C6AA5D6C150C00B0F09C16EC69A949E9B
:100F900093809392000EC66EC76E800ED56ECD6A9A
:100FA000000ECA6E000ECB6E070EB46E9250270E66
:100FB000006E002EFED700D0B450A19CB56AD36A53
:100FC000D350939A8A8A939C8A8C939E8A9E938C00
:100FD00081AC1ED0939C8A8C939E8A8E010E806F6A
:100FE0007DDE939E8A9E010E806F78DE20520FE098
:100FF00023A20DD0010E6F6F716B2E0E706F736B8D
:10100000400E726F756B640E746F00DF6DDFDFD79B
:10101000939C8A9C20520FE023A20DD0010E6F6F8B
:10102000716B2E0E706F736B400E726F756B640E6A
:0A103000746FECDE59DFC9D703002E
:020000040030CA
:0E000000240E3E1E008381000FC00FE00F4053
:00000001FF
;PIC18F2455
