:10000000FAEF08F06896000C046ED8CF05F0E0CF48
:1000100006F00001E9CF0CF0EACF07F0E1CF08F0DD
:10002000E2CF09F0D9CF0AF0DACF0BF0F3CF12F01C
:10003000F4CF13F0FACF14F0F5CF15F0F6CF16F099
:10004000F7CF17F000C00EF001C00FF002C010F0A3
:1000500003C011F0A0AA30EF00F0A1BAC8EF06F07B
:100060000EC000F00FC001F010C002F011C003F08C
:100070000CC0E9FF07C0EAFF078E08C0E1FF09C016
:10008000E2FF0AC0D9FF0BC0DAFF12C0F3FF13C0B2
:10009000F4FF14C0FAFF15C0F5FF16C0F6FF17C035
:1000A000F7FF045006C0E0FF05C0D8FF1000F76A54
:1000B000BE0FF66E000EF7220900F5501200000385
:1000C000FFFFFFFFFFFFFFFFFFFFFFFFFFFFF76ADD
:1000D000DE0FF66E000EF7220900F5501200400008
:1000E00040000000000000000000000000000000D0
:1000F0000000000000000000000000000000F76A9F
:100100000E0FF66E010EF7220900F55012000600E0
:10011000FF0901A101190129081580257F7508959E
:1001200040810219012908750895409102C0F76ABB
:100130003E0FF66E010EF7220900F5501200000086
:10014000F76A500FF66E010EF7220900F550120003
:100150002000F76A620FF66E010EF7220900F550D3
:10016000120009022900010100C032090400000246
:100170000300000009210001000122200007058181
:100180000340000A0705010340000A00F76A9C0FBC
:10019000F66E010EF7220900F55012000100F76A11
:1001A000AE0FF66E010EF7220900F5501200120094
:1001B000F76AC00FF66E010EF7220900F550120023
:1001C000120110010000004061040400000101025E
:1001D0000001F76AE20FF66E010EF7220900F550F2
:1001E00012000403000408035A0057004C001403D3
:1001F00049004E00430055004D004F0054004F0091
:1002000052006D92699468A402D06894FCD7D4EF30
:1002100006F0400E0401016F040E036F100E026F12
:10022000880E006F046B040E076F500E066F0001FE
:10023000000C70A002D0EDDF7090689ADDEF06F040
:100240006A6A6892E3EF06F0A691A5BFA681A59F12
:10025000A551100803E2000E016E17D0A6A10BD025
:10026000036AA55124DFFF0802E1000E01D0010E50
:10027000016E0BD00AD0036AA55119DFFF0802E115
:10028000000E01D0010E016E00D0000CA551A70395
:10029000F3CF01F0F4CF00F0A803F3500026A651ED
:1002A000A703F3500020026E000C036AA451700FE4
:1002B000E96E0F0E0320EA6EEF6AA4C0A5F0C4DF5A
:1002C000015222E0A66BA4C0A5F0A86B080EA76F90
:1002D000DDDF01C0E9FF040E0224EA6EEF6AA66BBF
:1002E000A4C0A5F0A86B080EA76FD0DF02C0A6F0CF
:1002F00001C0A5F0040EA527000EA623A5C0E9FFA6
:10030000040EA625EA6EEF6A000C010EA36FA3513E
:100310000F0805E3A3C0A4F0C8DFA32BF8D7000C97
:10032000996B99530AE1036A99512D0FE96E000EFA
:100330000320EA6EEF6A992BF4D7216A010E226E30
:10034000206A000C6A6A686A9F0E6B6E3D0E696EC9
:100350006E6ADBDFE5DF160E706E68A602D052DE35
:10036000FCD76D9856DF030E286EE9EF06F069841E
:1003700068986D82EFEF06F0689CF5EF06F09EC07E
:1003800029F0000CFF0E296E000C9C6B2C522AE009
:100390009C513F0827E32350FC0F17E2040FFCEFAA
:1003A00001F0036A2B50D5DE9D6F0FD0036A2B50EE
:1003B000A6DE9D6F0AD0036A2B500BDF9D6F05D020
:1003C000036A2B50F5DE9D6F00D02B2A2C069C5122
:1003D0009C2B500FE96E040EEA6ED8B0EA2A9DC03D
:1003E000EFFFD4D72C5204E19C51400801E0206A71
:1003F0009CC09EF0C4DF000CE824F76AF736130FA8
:10040000F66E040EF7220A00F550FA6E0800F55059
:10041000F96EA203AC03B603C0032B6A236A04017E
:100420001351010A000109E0030A0CE0010A0DE082
:10043000220A1DE0030A30E04CD0120E2C6E030E8F
:10044000236E49D0290E2C6E46D0020E236E036A0D
:1004500004011251240FE96E000E0320EA6EEFCF63
:100460002BF0036A2B500001B4DE2C6E34D0D890F0
:1004700004011235036A000192DE0900F5CF03F092
:100480002B6E2B3C01D006D0036A2B5062DE2C6E03
:1004900022D002D077DF2BD0D89004011435036A24
:1004A000000145DE0900F5CF03F02B6E2B3C01D097
:1004B0000ED0010E236ED89004011435036A00019A
:1004C0003FDE0900F5CF03F02C6E05D002D05ADFD5
:1004D0000ED058DF0CD00401175305E12C50165DE7
:1004E00002E216C42CF0010E206E00014EDF000C5B
:1004F0009B5304E1040E286E08DFC9D0050E286E58
:10050000040E9E6F900E9D6F010E9C6F9C510F0804
:10051000D8A0BDD09CC0A4F0C8DE9F6B036A9C51DC
:10052000C6DDFF0859E0040E9F6FD8909C35036A22
:10053000CEDD0900F5CF03F0A06F03C0A1F0A66BDC
:100540009CC0A5F0A86B080EA76FA0DE01C0A3F0A9
:10055000010E0124016E000E0220036E01C0E9FFAE
:10056000040E0324EA6EA0C0EFFFA66B9CC0A5F0AA
:10057000A86B080EA76F8ADE01C0A3F0020E01244B
:10058000016E000E0220036E01C0E9FF040E032479
:10059000EA6E9EC0ECFFED529DC0EFFFD8909C35F7
:1005A000036A95DD0900F5CF03F09D2703509E23D4
:1005B000880EA26FA1B1A281A1B3A283A66B9CC039
:1005C000A5F0A86B080EA76F61DE01C0E9FF040E5D
:1005D0000224EA6EA2C0EFFF036A9C5168DDFF08A7
:1005E00040E09F83A66B9CC0A5F0A86B080EA76F88
:1005F0004DDE02C0A4F001C0A3F0040EA327000E3C
:10060000A423020EA325016E000EA421036E01C0D7
:10061000E9FF040E0324EA6E9EC0ECFFED529DC07C
:10062000EFFFD8909C35036A52DD0900F5CF03F047
:100630009D2703509E23A66B9CC0A5F0A86B080EB7
:10064000A76F24DE02C0A4F001C0A3F0040EA3270C
:10065000000EA423A3C0E9FF040EA425EA6E400EF9
:10066000EF6E9F51060802E10E0E9F6F036A9C51C8
:100670001EDD0108D8A49F89036A9C51700FE96EA2
:100680000F0E0320EA6E9FC0EFFF9C2B3FD794EF25
:1006900003F004011151000A00010DE0010A14E009
:1006A000020A1EE0060A27E0030A2CE00E0A2CE0EC
:1006B000010A30E03DD022C050F40401516B020E1B
:1006C00000019E6F5CDE36D00401122D06D0010EB3
:1006D000221600019E6B53DE02D0000153DE2AD0A9
:1006E0000401122D05D0228200019E6B48DE02D04B
:1006F000000148DE1FD0020E206E12C42AF09E6B4D
:100700003EDE18D08ADE16D021C050F4010E9E6F56
:1007100036DE10D004011251010808E312C421F0A2
:1007200012C49BF00001E4D69E6B29DE000102D0CA
:1007300029DE00D0C5EF04F021C09BF00401115167
:10074000000A000107E00A0A0DE0010A28E00D0A8C
:1007500038E039D00401506B516B020E00019E6FDE
:100760000EDE33D09B5319E0010E9B5D036A0EDD54
:10077000016E0401145DD8A002D000010ED0036AFE
:1007800014512D0FE96E000E0320EA6EEFCF50F4E6
:10079000010E00019E6FF3DD01D0F4DD16D09B53F6
:1007A0000EE0036A040114512D0FE96E000E0320C0
:1007B000EA6E12C4EFFF00019E6BE1DD01D0E2DDC5
:1007C00004D02BDE02D0DEDD00D0C5EF04F09C911A
:1007D0009BBF9C819B9F9CA117D0A66B9BC0A5F043
:1007E000A86B080EA76F52DD02C09EF001C09DF0FD
:1007F000040E9D27000E9E239DC0E9FF040E9E253A
:10080000EA6E880EEF6E0DD0A66B9BC0A5F0A86BAC
:10081000080EA76F3BDD01C0E9FF040E0224EA6E5B
:10082000EF6A87EF04F09C919BBF9C819B9F9CA1EA
:1008300017D0A66B9BC0A5F0A86B080EA76F26DD8E
:1008400002C09EF001C09DF0040E9D27000E9E2365
:100850009DC0E9FF040E9E25EA6E840EEF6E0ED059
:10086000A66B9BC0A5F0A86B080EA76F0FDD01C09B
:10087000E9FF040E0224EA6E840EEF6E8DEF04F0A1
:100880009C919BBF9C819B9F9CA117D0A66B9BC0FA
:10089000A5F0A86B080EA76FF9DC02C09FF001C09D
:1008A0009EF0040E9E27000E9F239EC0E9FF040EBB
:1008B0009F25EA6EEFCF9DF00ED0A66B9BC0A5F0F2
:1008C000A86B080EA76FE2DC01C0E9FF040E02244A
:1008D000EA6EEFCF9DF09DAF02D09DB502D0000E25
:1008E00001D0010E016E97EF04F014C4A5F0ACDC4A
:1008F000015229E004011151010A000105E0020A38
:1009000009E0030A0DE01DD014C49BF060D79E6B74
:1009100036DD19D014C49BF086D79E6B30DD13D022
:100920000401506B516B14C49BF00001A9D7015214
:1009300004E0010E0401506F0001020E9E6F1FDDE6
:1009400002D020DD00D0C5EF04F00401115100D029
:10095000000118DD00D0C5EF04F0206A0401105139
:100960007F0B000A000107E0010A07E0030A07E025
:10097000230A07E008D08DD608D0DED606D0B5D73A
:1009800004D0E3D702D0FEDC00D01DEF06F0A66B4A
:100990009BC0A5F0A86B080EA76F78DC01C0E9FF2B
:1009A000040E0224EA6EEFCF9DF09C51020806E18E
:1009B0009DAD02D09C6B02D0010E9C6F9C51030830
:1009C00019E1840E9D6FA66B9BC0A5F0A86B080E65
:1009D000A76F5CDC02C0A1F001C0A0F0040EA0274C
:1009E000000EA123A0C0E9FF040EA125EA6E840E2B
:1009F000EF6E07D09C2D03D0C80E9D6F02D0880EDD
:100A00009D6FD8909B35036A67EC00F00900F5CF25
:100A100003F09E6F03C09FF0A66B9BC0A5F0A86B70
:100A2000080EA76F33DC01C0A0F0010E0124016E97
:100A3000000E0220036E01C0E9FF040E0324EA6EDB
:100A40009EC0EFFF9FB19D819FB39D83A66B9BC00E
:100A5000A5F0A86B080EA76F19DC01C0E9FF040E12
:100A60000224EA6E9DC0EFFF000C036AA051700FD4
:100A7000E96E0F0E0320EA6EEF5218E0A66BA0C0DD
:100A8000A5F0A86B080EA76F01DC02C0A2F001C0A0
:100A9000A1F0040EA127000EA223A1C0E9FF040EBD
:100AA000A225EA6EEFCFA1F0A1AF02D0000E01D0D7
:100AB000010E016E5FEF05F09BC0A0F0D6D701528A
:100AC000D8B47CD0A66B9BC0A5F0A86B080EA76F0E
:100AD00046EC01F002C0A1F001C0A0F0040EA02776
:100AE000000EA123010EA025016E000EA121036EB0
:100AF00001C0E9FF040E0324EA6E9CC0EFFF9E5183
:100B000002081EE1A66B9BC0A5F0A86B080EA76F9C
:100B100046EC01F002C0A1F001C0A0F0040EA02735
:100B2000000EA123A0C0E9FF040EA125EA6EEFCFBD
:100B30009FF09FAD02D09E6B02D0010E9E6F18D029
:100B40009E51040815E1A66B9BC0A5F0A86B080E8A
:100B5000A76F46EC01F001C0E9FF040E0224EA6E23
:100B6000EFCF9FF09FAD03D0010E9E6F01D09E6B23
:100B70009E2D03D0C80E9F6F02D0880E9F6F9DB12F
:100B80009F819DB39F83A66B9BC0A5F0A86B080EA9
:100B9000A76F46EC01F002C0A1F001C0A0F0040E66
:100BA000A027000EA123A0C0E9FF040EA125EA6E34
:100BB0009FC0EFFF010E016E03D000D0000E016E4A
:100BC000000C9B5300E1000C9CC06EFF9C5303E0A3
:100BD000040E286E02D0020E286EF4EF05F0216A92
:100BE000206A2AC09CF0F0D701EF06F09B5309E180
:100BF000202C03D0C5EC01F004D02050020801E104
:100C0000EED7000C2730996F993399331F0E99173F
:100C1000275242E1040100513C0B00019A6F430E40
:100C20000401001700019A5134081EE10401045127
:100C3000800B01E0046B000190D66D98293C05D033
:100C40009B6B030E9C6FA3DE0ED09B6B020E9C6F02
:100C50009EDE2950FE0807E09B6B9D6B29C09CF02F
:100C6000040E9E6F29DF17D09A51040814E19B6B84
:100C7000A8DF9B6B020E9C6F8ADE2950FE080AE0FB
:100C8000293C01D007D09B6B9D6B29C09CF0010EC5
:100C90009E6F12DF00D07AD02750040814E1430E73
:100CA00004010417FF0E296E00019B6B9FDF293C96
:100CB00001D008D09B6B9D6B29C09CF0020E9E6FEB
:100CC000FBDE00D063D027B42AD0A66B99C0A5F074
:100CD000A86B080EA76F46EC01F001C09BF001C0A5
:100CE00001F0040E0224036E01C09BF09C6FA66B02
:100CF00099C0A5F0A86B080EA76F46EC01F001C0E3
:100D0000E9FF040E0224EA6EEF50430B9CC0EAFF99
:100D10009BC0E9FFEF6E99C09BF053DF37D0A66B05
:100D200099C0A5F0A86B080EA76F46EC01F002C0B1
:100D30009CF001C09BF0040E9B27000E9C239BC0DF
:100D400001F0040E9C25036E9BC09BF09C6FA66B6C
:100D500099C0A5F0A86B080EA76F46EC01F002C081
:100D60009EF001C09DF0040E9D27000E9E239DC0A5
:100D7000E9FF040E9E25EA6EEF50430B9CC0EAFF8C
:100D80009BC0E9FFEF6E99C09BF030DFFFEF06F0EC
:100D9000A19A285201E139D0685237E068A404D002
:100DA00069A402D001EF01F06DA201D02ED068AA93
:100DB00004D069AA02D019EF01F068A204D069A298
:100DC00002D020EF01F068A004D069A002D0A2EF09
:100DD00001F068A804D069A802D0B7EF01F068ACB0
:100DE00004D069AC02D0BCEF01F0986B68A608D0C3
:100DF00069A606D06CCF27F002EC00F003D701D033
:100E000004D09851982B0308F1E230EF00F06D6A9E
:100E1000696A080E6F6E94503009946E286A196AD8
:100E2000F2BE198EF29E90EC01F019BEF28E1AEF0E
:100E300007F0EDD740EF07F0196AF2BE198EF29E67
:100E400090EC01F019BEF28E6D6A140E6F6E696A35
:100E50006D86010E286E30EF07F06DB601D0ECD72D
:100E6000282C0BD06DBA09D0686A696AA08AC00EB6
:100E7000F212110E696E020E286E41EF07F0D9D7FB
:100E8000ECD728500208FCE10FEF09F02150016E69
:100E900039EF09F0036A8451700FE96E0F0E0320D9
:100EA000EA6EEF5219E0196AF2BE198EF29EA66B35
:100EB00084C0A5F0A86B080EA76F46EC01F019BE20
:100EC000F28E02C086F001C0E9FF040E0224EA6E31
:100ED000EFCF85F085AF02D0000E01D0010E016E7C
:100EE000000C196AF2BE198EF29EA66B89C0A5F09D
:100EF000A86B080EA76F46EC01F019BEF28E01C078
:100F000093F0020E0124016E000E0220036E01C058
:100F1000E9FF040E0324EA6EECCF03F0ED52EFCFAD
:100F20008EF003C08FF0196AF2BE198EF29EA66B86
:100F300089C0A5F0A86B080EA76F46EC01F019BE9A
:100F4000F28E01C093F0010E0124016E000E02200A
:100F5000036E01C0E9FF040E0324EA6EEF50036A3A
:100F6000916F03C092F0196AF2BE198EF29EA66BC1
:100F700089C0A5F0A86B080EA76F46EC01F019BE5A
:100F8000F28E01C0E9FF040E0224EA6EEFCF90F06A
:100F900090B1928190B3928392518D5D08E303E109
:100FA0008C51915D04E292C08DF091C08CF08BC0A9
:100FB000EAFF8AC0E9FF8FC0E2FF8EC0E1FF8DC06B
:100FC00002F08CC001F0015202E0022A02D002526B
:100FD00006E0E6CFEEFF012EFCD7022EFAD78CC03A
:100FE00001F08DC002F000EF08F084C089F086C0E7
:100FF0008BF085C08AF088C08DF087C08CF071D7E7
:1010000002C088F001C087F0196AF2BE198EF29E04
:1010100084C09BF0020E9C6FBADC19BEF28E87C0B2
:1010200001F088C002F058EF08F0EA6A840EE96E19
:10103000EF500EE00F0E016E006A002EFED7012E5B
:10104000FBD78F0E006E002EFED70000EF2EF2D7DA
:10105000000C7B6B7A6BD8907335036A67EC00F0F9
:101060000900F5CF03F0806F03C081F08151775DF7
:1010700009E303E17651805D05E281C083F080C021
:1010800082F004D077C083F076C082F07D6B7C6BF9
:1010900073C084F0FFDE01521DE073C084F075C0A0
:1010A00086F074C085F083C088F082C087F09DD739
:1010B00002C07FF001C07EF07E5174277F517523FE
:1010C0007E51765F7F51775B7E517A277F517B23FC
:1010D0000DD006D07C2BD8B47D2B010E846FA5DFFC
:1010E00078517C5DD5E179517D5DD2E180517E5DA5
:1010F0000CE181517F5D09E178517C5D03E179511B
:101100007D5D03E076517711B1E17AC001F07BC0DB
:1011100002F04CEF09F03350000A03E0010A20E02E
:101120003ED0939E8A8E2FC074F0742B7407D8B46F
:1011300004D0FF0E846F79DFF9D72EC084F075DFFD
:10114000939E8A9E2FC074F0742B7407D8B404D079
:10115000FF0E846F6ADFF9D72EC084F066DF1FD0E0
:1011600093968A862FC074F0742B7407D8B404D079
:10117000FF0E846F5ADFF9D72EC084F056DF9396A6
:101180008A962FC074F0742B7407D8B404D0FF0E65
:10119000846F4BDFF9D72EC084F047DF00D0F0EF2B
:1011A00008F03050000A03E0010A06E00AD0939AE2
:1011B0008A9A93948A9405D0939A8A8A93948A847B
:1011C00000D0726B716B725313E13250715D10E29B
:1011D000726B716B725308E13150715D05E29BD700
:1011E000712BD8B4722BF6D7712BD8B4722BEBD7E6
:1011F0004DEF09F0F86AD09E078EEA6AE96A286A1C
:101200002C6AC150C00B0F09C16E070EB46E1A6A6A
:101210001B6A246A040E256E0C0E266E30D6C15051
:10122000C00B0F09C16EC66A800ED56ECD6A000E66
:10123000CA6E000ECB6E070EB46E9250926E270EE1
:10124000006E002EFED700D0B450A19CB56AD36AC0
:10125000D3502F6A040E2E6E939A8A8A93948A84AE
:1012600093928A9293988A98939E8A9E93968A964E
:101270000DD6015212E0010E846F0CDE01520DE01A
:10128000010E736F756B300E746F776B400E766F57
:0E129000796B640E786FDDD684D7EAD7030041
:020000040030CA
:0E00000024CE3E1E0087810007C007E00740A7
:00000001FF
;PIC18F2455
;CRC=334C  CREATED="17-Aug-12 10:16"
