:020000040000FA
:04000000E4EF07F032
:08000800056ED8CF06F0E0CF31
:1000100007F00001E9CF0DF0EACF08F0E1CF09F0D9
:10002000E2CF0AF0D9CF0BF0DACF0CF0F3CF14F017
:10003000F4CF15F0FACF16F000C00FF001C010F0A9
:1000400002C011F003C012F004C013F0A0AA2CEFFC
:1000500000F0A1BAFBEF05F00FC000F010C001F0F6
:1000600011C002F012C003F013C004F00E8E0DC0D8
:10007000E9FF08C0EAFF09C0E1FF0AC0E2FF0BC0C8
:10008000D9FF0CC0DAFF14C0F3FF15C0F4FF16C08F
:10009000FAFF055007C0E0FF06C0D8FF1000F76A5E
:1000A000AE0FF66E000EF7220900F55012000403A1
:1000B00000000000000000000000000000000DAE85
:1000C00003D0F2CF0EF0F29EF76AE00FF66E000E4C
:1000D000F7220900F5500DAE02D00EBEF28E1200CE
:1000E0004000400000000000000000000000000090
:1000F0000000000000000000000000000000000000
:10010000F76A100FF66E010EF7220900F550120083
:100110000600FF0901A101190129081580257F7535
:10012000089540810219012908750895409102C07F
:10013000F76A400FF66E010EF7220900F550120023
:100140000000F76A520FF66E010EF7220900F55013
:1001500012002000F76A640FF66E010EF722090004
:10016000F550120009022900010100C03209040003
:100170000002030000000921000100012220000705
:1001800005810340000A0705010340000A00F76AE1
:100190009E0FF66E010EF7220900F55012000100C5
:1001A000F76AB00FF66E010EF7220900F550120043
:1001B000120110010000004061040400000101026E
:1001C0000001F76AD20FF66E010EF7220900F55012
:1001D00012000403000408035A0057004C001403E3
:1001E00050004F004C004F004C005500500049009B
:1001F00043006D926994689406EF06F06A6A68920B
:100200000FEF06F0986B98530AE1036A98512D0F8F
:10021000E96E000E0320EA6EEF6A982BF4D7206A8D
:10022000010E216E1F6A000C010EA16FA1510F0873
:100230000EE3700EA125016E0F0E036ED8B0032AD7
:1002400001C0E9FF03C0EAFFEF6AA12BEFD7246AE0
:10025000236A000C400E0401016F050E036F026B50
:10026000880E006F046B050E076F400E066F0001CD
:10027000000C6A6A686A9F0E6B6E390E696E6E6A50
:10028000C1DFD2DF160E706E68A602D06896FCD76A
:100290006D98E0DF030E256E15EF06F0698468980F
:1002A0006D821BEF06F0689C21EF06F070A002D073
:1002B000D1DF7090689A27EF06F09CC026F0000C02
:1002C000FF0E266E000C9A6B2C523EE09A513F08AE
:1002D0003BE32250FC0F2BE2040FAEEF01F0036A68
:1002E0002B50F2CF9CF0F29E35DF9CBFF28E9B6FBD
:1002F0001ED0036A2B50F2CF9CF0F29E01DF9CBF10
:10030000F28E9B6F14D0036A2B50F2CF9CF0F29EBA
:1003100058DF9CBFF28E9B6F0AD0036A2B50F2CF3E
:100320009CF0F29E3DDF9CBFF28E9B6F00D02B2A8B
:100330002C069A519A2B036A400FE96E050E032092
:10034000EA6E9BC0EFFFC0D72C5204E19A514008DF
:1003500001E01F6A9AC09CF0B0DF000CE824F76A45
:10036000F736770FF66E030EF7220A00F550FA6E95
:100370000800F550F96EDE02F20206031A032B6A3A
:10038000226A05010351010A000109E0030A0CE099
:10039000010A0DE0220A22E0030A32E058D0120ED0
:1003A0002C6E030E226E55D0290E2C6E52D0020EEA
:1003B000226E036A05010251270FE96E000E032029
:1003C000EA6EEFCF2BF0036A2B50F2CF9AF0F29E39
:1003D0000001F7DE9ABFF28E2C6E3BD0120E2B6E10
:1003E0002B3C01D00BD0036A2B50F2CF9AF0F29E37
:1003F000B1DE9ABFF28E2C6E2CD002D061DF35D0E8
:10040000D89005010435036AF2CF9AF0F29E0001FC
:100410008FDE0900F5CF03F09ABFF28E2B6E2B3CD6
:1004200001D013D0010E226ED89005010435036A65
:10043000F2CF9AF0F29E000184DE0900F5CF03F0BE
:100440009ABFF28E2C6E05D002D03ADF0ED038DF84
:100450000CD00501075305E12C50065D02E206C5EC
:100460002CF0010E1F6E00012EDF000C995304E1E9
:10047000040E256ED9DEC1D0050E256E9C6F800E50
:100480009B6F010E9A6F9A510F08D8A0B6D09D6B42
:10049000036A9A51F2CFA1F0F29E01DEA1BFF28E63
:1004A000000A51E0040E9D6FD8909A35036AF2CF8E
:1004B000A1F0F29E04DE0900F5CF03F0A1BFF28E99
:1004C0009E6F03C09FF09A51080DF350010F016E0B
:1004D000040E036ED8B0032A01C0E9FF03C0EAFF8F
:1004E0009EC0EFFF9A51080DF350020F016E040EEB
:1004F000036ED8B0032A01C0E9FF03C0EAFF9CC025
:10050000ECFFED529BC0EFFFD8909A35036AF2CF13
:10051000A1F0F29ED4DD0900F5CF03F0A1BFF28E69
:100520009B2703509C23880EA06F9FB1A0819FB38F
:10053000A0839A51080DF3CF01F0040E01C0E9FF2A
:10054000EA6EA0C0EFFF036A9A51F2CFA1F0F29ECB
:10055000A6DDA1BFF28E000A31E09D839A51080DFD
:10056000F350060F016E040E036ED8B0032A01C0CB
:10057000E9FF03C0EAFF9CC0ECFFED529BC0EFFF18
:10058000D8909A35036AF2CFA1F0F29E98DD090067
:10059000F5CF03F0A1BFF28E9B2703509C239A5105
:1005A000080DF350040F016E040E036ED8B0032A39
:1005B00001C0E9FF03C0EAFF400EEF6E9D5106083F
:1005C00002E10E0E9D6F036A9A51F2CFA1F0F29EE6
:1005D00066DDA1BFF28E020801E09D89700E9A25AA
:1005E000016E0F0E036ED8B0032A01C0E9FF03C0ED
:1005F000EAFF9DC0EFFF9A2B46D749EF03F00501B4
:10060000015100010DE0010A14E0020A1EE0060A91
:1006100027E0030A2CE00E0A2CE0010A30E03DD06E
:1006200021C040F50501416B020E00019C6F45DEC3
:1006300036D00501022D06D0010E211600019C6B5B
:100640003CDE02D000013CDE2AD00501022D05D09F
:10065000218200019C6B31DE02D0000131DE1FD00F
:10066000020E1F6E02C52AF09C6B27DE18D087DEB3
:1006700016D020C040F5010E9C6F1FDE10D0050182
:100680000251010808E302C520F002C599F00001FB
:10069000EDD69C6B12DE000102D012DE00D07FEF9F
:1006A00004F020C099F005010151000107E00A0A99
:1006B0000DE0010A2DE00D0A3DE03ED00501406B42
:1006C000416B020E00019C6FF8DD38D099531EE09B
:1006D000010E995D036AF2CF9BF0F29E58DD9BBF3D
:1006E000F28E016E0501045DD8A002D000010ED08B
:1006F000036A04512D0FE96E000E0320EA6EEFCF5E
:1007000040F5010E00019C6FD8DD01D0D9DD16D077
:1007100099530EE0036A050104512D0FE96E000E96
:100720000320EA6E02C5EFFF00019C6BC6DD01D01D
:10073000C7DD04D024DE02D0C3DD00D07FEF04F09B
:100740009A9199BF9A81999F9AA110D0036A995161
:10075000F2CF9BF0F29EA3DC9BBFF28E000A02E177
:10076000000E01D0010E016E10D00FD0036A995116
:10077000F2CF9BF0F29E93DC9BBFF28E000A02E167
:10078000000E01D0010E016E00D037EF04F09A91F7
:1007900099BF9A81999F9AA110D09951080DF35051
:1007A000040F016E040E036ED8B0032A01C0E9FFE6
:1007B00003C0EAFF880EEF6E09D09951080DF3CF00
:1007C00001F0040E01C0E9FFEA6EEF6A46EF04F0A3
:1007D0009A9199BF9A81999F9AA110D09951080D29
:1007E000F350040F016E040E036ED8B0032A01C04B
:1007F000E9FF03C0EAFF840EEF6E0AD09951080D9D
:10080000F3CF01F0040E01C0E9FFEA6E840EEF6E33
:100810004CEF04F09A9199BF9A81999F9AA110D0B8
:100820009951080DF350040F016E040E036ED8B0F9
:10083000032A01C0E9FF03C0EAFFEFCF9BF00AD013
:100840009951080DF3CF01F0040E01C0E9FFEA6EE3
:10085000EFCF9BF09BAF02D09BB502D0000E01D032
:10086000010E016E56EF04F004C599F069D70152EC
:1008700029E005010151010A000105E0020A09E031
:10088000030A0DE01DD004C599F081D79C6B15DDDE
:1008900019D004C599F09CD79C6B0FDD13D00501CE
:1008A000406B416B04C599F00001B4D7015204E0DC
:1008B000010E0501406F0001020E9C6FFEDC02D0AC
:1008C000FFDC00D07FEF04F00501015100D00001F2
:1008D000F7DC00D07FEF04F01F6A050100517F0BA9
:1008E000000107E0010A06E0030A05E0230A04E02C
:1008F00004D085D6D6D6B8D7E7D7E2DC00D0A6EFAD
:1009000005F09951080DF3CF01F0040E01C0E9FF85
:10091000EA6EEFCF9BF09A51020806E19BAD02D040
:100920009A6B02D0010E9A6F9A51030812E1840E5D
:100930009B6F9951080DF350040F016E040E036E66
:10094000D8B0032A01C0E9FF03C0EAFF840EEF6EAE
:1009500009D09A2D03D0C80E9B6F04D09A5302E1A0
:10096000880E9B6F036A010E026E9951006E05E0BE
:10097000D89002360336002EFBD70250FF0A006ED5
:10098000FF0E031A0050231603502416D8909935F1
:10099000036AF2CF9EF0F29E5FEC00F00900F5CF03
:1009A00003F09EBFF28E9C6F03C09DF09951080D1D
:1009B000F350010F016E040E036ED8B0032A01C07C
:1009C000E9FF03C0EAFF9CC0EFFF9DB19B819DB38F
:1009D0009B839951080DF3CF01F0040E01C0E9FF8C
:1009E000EA6E9BC0EFFF000C9951080DF350040F05
:1009F000016E040E036ED8B0032A01C0E9FF03C0E4
:100A0000EAFFEFCF9DF09DBF5BD09951080DF350E9
:100A1000050F016E040E036ED8B0032A01C0E9FF72
:100A200003C0EAFF9AC0EFFF9C51020816E19951FA
:100A3000080DF350040F016E040E036ED8B0032AA4
:100A400001C0E9FF03C0EAFFEFCF9DF09DAD02D0EA
:100A50009C6B02D0010E9C6F13D09C51040810E1D6
:100A60009951080DF3CF01F0040E01C0E9FFEA6EC1
:100A7000EFCF9DF09DAD03D0010E9C6F01D09C6B1C
:100A80009C2D03D0C80E9D6F04D09C5302E1880EAC
:100A90009D6F9BB19D819BB39D839951080DF35030
:100AA000040F016E040E036ED8B0032A01C0E9FFE3
:100AB00003C0EAFF9DC0EFFF010E016E03D000D01E
:100AC000000E016E000C995303E12AEC01F00FD0E7
:100AD000036A010E026E9951006E05E0D89002364D
:100AE0000336002EFBD70250231203502412000CB1
:100AF0009AC06EFF9A5303E0040E256E02D0020ED8
:100B0000256E88EF05F0206A1F6A2AC09AF0F0D798
:100B100095EF05F0995309E11F2C03D063EC01F028
:100B200004D01F50020801E1EED7000C6C30986F22
:100B3000983398331F0E98176C523BE10401005113
:100B40003C0B34081BE1046B0001C6D6263C05D0E3
:100B5000996B030E9A6FD5DE0ED0996B020E9A6FC9
:100B6000D0DE2650FE0807E0996B9B6B26C09AF0FA
:100B7000040E9C6F39DF6D9819D0040100513C0BB5
:100B8000040815E10001996B9EDF996B020E9A6FC4
:100B9000B8DE2650FE080AE0263C01D007D0996B4B
:100BA0009B6B26C09AF0010E9C6F1EDF040120D0C3
:100BB00000016C50040812E1FF0E266E996BAADF4B
:100BC000263C01D008D0996B9B6B26C09AF0020E90
:100BD0009C6F0ADF02D02AEC01F009D06CB404D07B
:100BE00098C099F070DF03D098C099F093DF0401AA
:100BF00000012CEF06F0255201E12FD068522DE0C4
:100C000068A404D069A402D0F9EF00F06DA201D06D
:100C100024D068A204D069A202D0FEEF00F068A040
:100C200004D069A002D039EF01F068A804D069A807
:100C300002D04EEF01F068AC04D069AC02D053EFA3
:100C400001F068AA04D069AA02D056EF01F068A6A4
:100C500004D069A602D06AD76896A19A2CEF00F05A
:100C60006D6A696A080E6F6E94503009946E256A39
:100C7000186AF2BE188EF29E02EC01F018BEF28ED7
:100C8000246A236A68EF06F0186AF2BE188EF29E94
:100C900002EC01F018BEF28E6D6A140E6F6E696A76
:100CA0006D86010E256E58EF06F06DB601D0ECD7BB
:100CB000252C0BD06DBA09D0686A696AA08AC00E6B
:100CC000F212110E696E020E256E69EF06F0C8D79A
:100CD000ECD725500208FCE1F9EF07F08B51080D25
:100CE000F350020F016E040E036ED8B0032A01C048
:100CF000E9FF03C0EAFFECCF03F0ED52EFCF90F035
:100D000003C091F08B51080DF350010F016E040EDA
:100D1000036ED8B0032A01C0E9FF03C0EAFFEF5019
:100D2000036A936F03C094F08B51080DF3CF01F069
:100D3000040E01C0E9FFEA6EEFCF92F092B1948108
:100D400092B3948394518F5D08E303E18E51935DD8
:100D500004E294C08FF093C08EF0946B936B945127
:100D60008F5D1AE303E18E51935D16E290C0E9FFB7
:100D700091C0EAFFEFCF97F08DC0EAFF8CC0E9FF8A
:100D800097C0EFFF8C2BD8B48D2B902BD8B4912B20
:100D9000932BD8B4942BE3D78EC001F08FC002F010
:100DA000DDEF06F086C08BF088C08DF087C08CF038
:100DB0008AC08FF089C08EF091D702C08AF001C03E
:100DC00089F0186AF2BE188EF29E86C099F0020E63
:100DD0009A6F97DD18BEF28E89C001F08AC002F0CA
:100DE00044EF07F0EA6A860EE96EEF500EE00F0E50
:100DF000016E006A002EFED7012EFBD78F0E006E0B
:100E0000002EFED70000EF2EF2D7000C7C6B7D6B1E
:100E1000D8907535036AF2CF86F0F29E5FEC00F051
:100E20000900F5CF03F086BFF28E826F03C083F016
:100E30008351795D09E303E17851825D05E283C066
:100E400085F082C084F004D079C085F078C084F049
:100E50007F6B7E6B24C003F023C002F07551006EDF
:100E600005E0D89003320232002EFBD7025002A0D8
:100E70001DD075C086F077C088F076C087F085C039
:100E80008AF084C089F08ED702C081F001C080F062
:100E900080517627815177238051785F8151795B2A
:100EA00080517C2781517D230DD006D07E2BD8B474
:100EB0007F2B010E866F96DF7A517E5DCBE17B51F1
:100EC0007F5DC8E18251805D0CE18351815D09E164
:100ED0007A517E5D03E17B517F5D03E078517911AA
:100EE000A7E17CC001F037EF08F03350000A03E0BF
:100EF000010A20E03ED0939E8A8E2FC076F0762B9A
:100F00007607D8B404D0FF0E866F6CDFF9D72EC0F9
:100F100086F068DF939E8A9E2FC076F0762B760748
:100F2000D8B404D0FF0E866F5DDFF9D72EC086F0EF
:100F300059DF1FD093968A862FC076F0762B7607DE
:100F4000D8B404D0FF0E866F4DDFF9D72EC086F0DF
:100F500049DF93968A962FC076F0762B7607D8B421
:100F600004D0FF0E866F3EDFF9D72EC086F03ADF41
:100F700000D0DAEF07F03050000A03E0010A06E083
:100F80000AD0939A8A9A93948A9405D0939A8A8ADB
:100F900093948A8400D0726B716B725313E1325058
:100FA000715D10E2746B736B745308E13150735DC3
:100FB00005E29BD7732BD8B4742BF6D7712BD8B41A
:100FC000722BEBD738EF08F0F86AD09E0D8EEA6AE4
:100FD000E96AC150C00B0F09C16E070EB46E196AE1
:100FE0001A6A256A276A040E286E0C0E296E2C6A6E
:100FF0006ED6C150C00B0F09C16EC69A949E9380E5
:101000009392000EC66EC76E800ED56ECD6A000E2E
:10101000CA6E000ECB6E070EB46E9250270E006E95
:10102000002EFED700D0B450A19CB56AD36AD3502D
:101030002F6A040E2E6E939A8A8A93948A849392CE
:101040008A9293988A98939E8A9E93968A96205223
:101050000FE023A20DD0010E756F776B300E766F07
:10106000796B400E786F7B6B640E7A6FCFD683D727
:04107000EED70300B4
:020000040030CA
:0E000000240E3E1E008381000FC00FE00F4053
:00000001FF
;PIC18F2455
