:020000040000FA
:04000000B8EF07F05E
:08000800056ED8CF06F0E0CF31
:1000100007F00001E9CF0DF0EACF08F0E1CF09F0D9
:10002000E2CF0AF0D9CF0BF0DACF0CF0F3CF14F017
:10003000F4CF15F0FACF16F000C00FF001C010F0A9
:1000400002C011F003C012F004C013F0A0AA2CEFFC
:1000500000F0A1BAFBEF05F00FC000F010C001F0F6
:1000600011C002F012C003F013C004F00E8E0DC0D8
:10007000E9FF08C0EAFF09C0E1FF0AC0E2FF0BC0C8
:10008000D9FF0CC0DAFF14C0F3FF15C0F4FF16C08F
:10009000FAFF055007C0E0FF06C0D8FF1000F76A5E
:1000A000AE0FF66E000EF7220900F55012000403A1
:1000B00000000000000000000000000000000DAE85
:1000C00003D0F2CF0EF0F29EF76AE00FF66E000E4C
:1000D000F7220900F5500DAE02D00EBEF28E1200CE
:1000E0004000400000000000000000000000000090
:1000F0000000000000000000000000000000000000
:10010000F76A100FF66E010EF7220900F550120083
:100110000600FF0901A101190129081580257F7535
:10012000089540810219012908750895409102C07F
:10013000F76A400FF66E010EF7220900F550120023
:100140000000F76A520FF66E010EF7220900F55013
:1001500012002000F76A640FF66E010EF722090004
:10016000F550120009022900010100C03209040003
:100170000002030000000921000100012220000705
:1001800005810340000A0705010340000A00F76AE1
:100190009E0FF66E010EF7220900F55012000100C5
:1001A000F76AB00FF66E010EF7220900F550120043
:1001B000120110010000004061040400000101026E
:1001C0000001F76AD20FF66E010EF7220900F55012
:1001D00012000403000408035A0057004C001403E3
:1001E00049004E004300550053004C0049004400B4
:1001F00045006D926994689406EF06F06A6A689209
:100200000FEF06F0976B97530AE1036A97512D0F92
:10021000E96E000E0320EA6EEF6A972BF4D7206A8E
:10022000010E216E1F6A000C010EA06FA0510F0875
:100230000EE3700EA025016E0F0E036ED8B0032AD8
:1002400001C0E9FF03C0EAFFEF6AA02BEFD7246AE1
:10025000236A000C400E0401016F050E036F026B50
:10026000880E006F046B050E076F400E066F0001CD
:10027000000C6A6A686A9F0E6B6E390E696E6E6A50
:10028000C1DFD2DF160E706E68A602D06896FCD76A
:100290006D98E0DF030E256E15EF06F0698468980F
:1002A0006D821BEF06F0689C21EF06F070A002D073
:1002B000D1DF7090689A27EF06F09BC026F0000C03
:1002C000FF0E266E000C996B2C523EE099513F08B0
:1002D0003BE32250FC0F2BE2040FAEEF01F0036A68
:1002E0002B50F2CF9BF0F29E35DF9BBFF28E9A6FC0
:1002F0001ED0036A2B50F2CF9BF0F29E01DF9BBF12
:10030000F28E9A6F14D0036A2B50F2CF9BF0F29EBC
:1003100058DF9BBFF28E9A6F0AD0036A2B50F2CF40
:100320009BF0F29E3DDF9BBFF28E9A6F00D02B2A8E
:100330002C069951992B036A400FE96E050E032094
:10034000EA6E9AC0EFFFC0D72C5204E199514008E1
:1003500001E01F6A99C09BF0B0DF000CE824F76A47
:10036000F736770FF66E030EF7220A00F550FA6E95
:100370000800F550F96EDE02F20206031A032B6A3A
:10038000226A05010351010A000109E0030A0CE099
:10039000010A0DE0220A22E0030A32E058D0120ED0
:1003A0002C6E030E226E55D0290E2C6E52D0020EEA
:1003B000226E036A05010251270FE96E000E032029
:1003C000EA6EEFCF2BF0036A2B50F2CF99F0F29E3A
:1003D0000001F7DE99BFF28E2C6E3BD0120E2B6E11
:1003E0002B3C01D00BD0036A2B50F2CF99F0F29E38
:1003F000B1DE99BFF28E2C6E2CD002D061DF35D0E9
:10040000D89005010435036AF2CF99F0F29E0001FD
:100410008FDE0900F5CF03F099BFF28E2B6E2B3CD7
:1004200001D013D0010E226ED89005010435036A65
:10043000F2CF99F0F29E000184DE0900F5CF03F0BF
:1004400099BFF28E2C6E05D002D03ADF0ED038DF85
:100450000CD00501075305E12C50065D02E206C5EC
:100460002CF0010E1F6E00012EDF000C985304E1EA
:10047000040E256ED9DEC1D0050E256E9B6F800E51
:100480009A6F010E996F99510F08D8A0B6D09C6B46
:10049000036A9951F2CFA0F0F29E01DEA0BFF28E66
:1004A000000A51E0040E9C6FD8909935036AF2CF90
:1004B000A0F0F29E04DE0900F5CF03F0A0BFF28E9B
:1004C0009D6F03C09EF09951080DF350010F016E0E
:1004D000040E036ED8B0032A01C0E9FF03C0EAFF8F
:1004E0009DC0EFFF9951080DF350020F016E040EED
:1004F000036ED8B0032A01C0E9FF03C0EAFF9BC026
:10050000ECFFED529AC0EFFFD8909935036AF2CF15
:10051000A0F0F29ED4DD0900F5CF03F0A0BFF28E6B
:100520009A2703509B23880E9F6F9EB19F819EB395
:100530009F839951080DF3CF01F0040E01C0E9FF2C
:10054000EA6E9FC0EFFF036A9951F2CFA0F0F29ECE
:10055000A6DDA0BFF28E000A31E09C839951080D00
:10056000F350060F016E040E036ED8B0032A01C0CB
:10057000E9FF03C0EAFF9BC0ECFFED529AC0EFFF1A
:10058000D8909935036AF2CFA0F0F29E98DD090069
:10059000F5CF03F0A0BFF28E9A2703509B23995109
:1005A000080DF350040F016E040E036ED8B0032A39
:1005B00001C0E9FF03C0EAFF400EEF6E9C51060840
:1005C00002E10E0E9C6F036A9951F2CFA0F0F29EE9
:1005D00066DDA0BFF28E020801E09C89700E9925AD
:1005E000016E0F0E036ED8B0032A01C0E9FF03C0ED
:1005F000EAFF9CC0EFFF992B46D749EF03F00501B6
:10060000015100010DE0010A14E0020A1EE0060A91
:1006100027E0030A2CE00E0A2CE0010A30E03DD06E
:1006200021C040F50501416B020E00019B6F45DEC4
:1006300036D00501022D06D0010E211600019B6B5C
:100640003CDE02D000013CDE2AD00501022D05D09F
:10065000218200019B6B31DE02D0000131DE1FD010
:10066000020E1F6E02C52AF09B6B27DE18D087DEB4
:1006700016D020C040F5010E9B6F1FDE10D0050183
:100680000251010808E302C520F002C598F00001FC
:10069000EDD69B6B12DE000102D012DE00D07FEFA0
:1006A00004F020C098F005010151000107E00A0A9A
:1006B0000DE0010A2DE00D0A3DE03ED00501406B42
:1006C000416B020E00019B6FF8DD38D098531EE09D
:1006D000010E985D036AF2CF9AF0F29E58DD9ABF40
:1006E000F28E016E0501045DD8A002D000010ED08B
:1006F000036A04512D0FE96E000E0320EA6EEFCF5E
:1007000040F5010E00019B6FD8DD01D0D9DD16D078
:1007100098530EE0036A050104512D0FE96E000E97
:100720000320EA6E02C5EFFF00019B6BC6DD01D01E
:10073000C7DD04D024DE02D0C3DD00D07FEF04F09B
:10074000999198BF9981989F99A110D0036A985167
:10075000F2CF9AF0F29EA3DC9ABFF28E000A02E179
:10076000000E01D0010E016E10D00FD0036A985117
:10077000F2CF9AF0F29E93DC9ABFF28E000A02E169
:10078000000E01D0010E016E00D037EF04F09991F8
:1007900098BF9981989F99A110D09851080DF35056
:1007A000040F016E040E036ED8B0032A01C0E9FFE6
:1007B00003C0EAFF880EEF6E09D09851080DF3CF01
:1007C00001F0040E01C0E9FFEA6EEF6A46EF04F0A3
:1007D000999198BF9981989F99A110D09851080D2F
:1007E000F350040F016E040E036ED8B0032A01C04B
:1007F000E9FF03C0EAFF840EEF6E0AD09851080D9E
:10080000F3CF01F0040E01C0E9FFEA6E840EEF6E33
:100810004CEF04F0999198BF9981989F99A110D0BD
:100820009851080DF350040F016E040E036ED8B0FA
:10083000032A01C0E9FF03C0EAFFEFCF9AF00AD014
:100840009851080DF3CF01F0040E01C0E9FFEA6EE4
:10085000EFCF9AF09AAF02D09AB502D0000E01D035
:10086000010E016E56EF04F004C598F069D70152ED
:1008700029E005010151010A000105E0020A09E031
:10088000030A0DE01DD004C598F081D79B6B15DDE0
:1008900019D004C598F09CD79B6B0FDD13D00501D0
:1008A000406B416B04C598F00001B4D7015204E0DD
:1008B000010E0501406F0001020E9B6FFEDC02D0AD
:1008C000FFDC00D07FEF04F00501015100D00001F2
:1008D000F7DC00D07FEF04F01F6A050100517F0BA9
:1008E000000107E0010A06E0030A05E0230A04E02C
:1008F00004D085D6D6D6B8D7E7D7E2DC00D0A6EFAD
:1009000005F09851080DF3CF01F0040E01C0E9FF86
:10091000EA6EEFCF9AF09951020806E19AAD02D043
:10092000996B02D0010E996F9951030812E1840E60
:100930009A6F9851080DF350040F016E040E036E68
:10094000D8B0032A01C0E9FF03C0EAFF840EEF6EAE
:1009500009D0992D03D0C80E9A6F04D0995302E1A3
:10096000880E9A6F036A010E026E9851006E05E0C0
:10097000D89002360336002EFBD70250FF0A006ED5
:10098000FF0E031A0050231603502416D8909835F2
:10099000036AF2CF9DF0F29E5FEC00F00900F5CF04
:1009A00003F09DBFF28E9B6F03C09CF09851080D21
:1009B000F350010F016E040E036ED8B0032A01C07C
:1009C000E9FF03C0EAFF9BC0EFFF9CB19A819CB393
:1009D0009A839851080DF3CF01F0040E01C0E9FF8E
:1009E000EA6E9AC0EFFF000C9851080DF350040F07
:1009F000016E040E036ED8B0032A01C0E9FF03C0E4
:100A0000EAFFEFCF9CF09CBF5BD09851080DF350EC
:100A1000050F016E040E036ED8B0032A01C0E9FF72
:100A200003C0EAFF99C0EFFF9B51020816E19851FD
:100A3000080DF350040F016E040E036ED8B0032AA4
:100A400001C0E9FF03C0EAFFEFCF9CF09CAD02D0EC
:100A50009B6B02D0010E9B6F13D09B51040810E1D9
:100A60009851080DF3CF01F0040E01C0E9FFEA6EC2
:100A7000EFCF9CF09CAD03D0010E9B6F01D09B6B20
:100A80009B2D03D0C80E9C6F04D09B5302E1880EAF
:100A90009C6F9AB19C819AB39C839851080DF35036
:100AA000040F016E040E036ED8B0032A01C0E9FFE3
:100AB00003C0EAFF9CC0EFFF010E016E03D000D01F
:100AC000000E016E000C985303E12AEC01F00FD0E8
:100AD000036A010E026E9851006E05E0D89002364E
:100AE0000336002EFBD70250231203502412000CB1
:100AF00099C06EFF995303E0040E256E02D0020EDA
:100B0000256E88EF05F0206A1F6A2AC099F0F0D799
:100B100095EF05F0985309E11F2C03D063EC01F029
:100B200004D01F50020801E1EED7000C6C30976F23
:100B3000973397331F0E97176C523BE10401005116
:100B40003C0B34081BE1046B0001C6D6263C05D0E3
:100B5000986B030E996FD5DE0ED0986B020E996FCD
:100B6000D0DE2650FE0807E0986B9A6B26C099F0FD
:100B7000040E9B6F39DF6D9819D0040100513C0BB6
:100B8000040815E10001986B9EDF986B020E996FC7
:100B9000B8DE2650FE080AE0263C01D007D0986B4C
:100BA0009A6B26C099F0010E9B6F1EDF040120D0C6
:100BB00000016C50040812E1FF0E266E986BAADF4C
:100BC000263C01D008D0986B9A6B26C099F0020E93
:100BD0009B6F0ADF02D02AEC01F009D06CB404D07C
:100BE00097C098F070DF03D097C098F093DF0401AE
:100BF00000012CEF06F0255201E12FD068522DE0C4
:100C000068A404D069A402D0F9EF00F06DA201D06D
:100C100024D068A204D069A202D0FEEF00F068A040
:100C200004D069A002D039EF01F068A804D069A807
:100C300002D04EEF01F068AC04D069AC02D053EFA3
:100C400001F068AA04D069AA02D056EF01F068A6A4
:100C500004D069A602D06AD76896A19A2CEF00F05A
:100C60006D6A696A080E6F6E94503009946E256A39
:100C7000186AF2BE188EF29E02EC01F018BEF28ED7
:100C8000246A236A68EF06F0186AF2BE188EF29E94
:100C900002EC01F018BEF28E6D6A140E6F6E696A76
:100CA0006D86010E256E58EF06F06DB601D0ECD7BB
:100CB000252C0BD06DBA09D0686A696AA08AC00E6B
:100CC000F212110E696E020E256E69EF06F0C8D79A
:100CD000ECD725500208FCE1CDEF07F0EA6A850E5B
:100CE000E96EEF500EE00F0E016E006A002EFED787
:100CF000012EFBD78F0E006E002EFED70000EF2EC8
:100D0000F2D7000C8A51080DF350020F016E040E49
:100D1000036ED8B0032A01C0E9FF03C0EAFFECCF9D
:100D200003F0ED52EFCF8FF003C090F08A51080D21
:100D3000F350010F016E040E036ED8B0032A01C0F8
:100D4000E9FF03C0EAFFEF50036A926F03C093F01C
:100D50008A51080DF3CF01F0040E01C0E9FFEA6EDD
:100D6000EFCF91F091B1938191B3938393518E5DC5
:100D700008E303E18D51925D04E293C08EF092C0CE
:100D80008DF0936B926B93518E5D1AE303E18D515D
:100D9000925D16E28FC0E9FF90C0EAFFEFCF96F0B8
:100DA0008CC0EAFF8BC0E9FF96C0EFFF8B2BD8B455
:100DB0008C2B8F2BD8B4902B922BD8B4932BE3D7BA
:100DC0008DC001F08EC002F0F1EF06F085C08AF010
:100DD00087C08CF086C08BF089C08EF088C08DF003
:100DE00091D702C089F001C088F0186AF2BE188E4F
:100DF000F29E85C098F0020E996F83DD18BEF28EC8
:100E000088C001F089C002F044EF07F07B6B7C6B77
:100E1000D8907435036AF2CF85F0F29E5FEC00F053
:100E20000900F5CF03F085BFF28E816F03C082F019
:100E30008251785D09E303E17751815D05E282C06B
:100E400084F081C083F004D078C084F077C083F050
:100E50007E6B7D6B24C003F023C002F07451006EE2
:100E600005E0D89003320232002EFBD7025002A0D8
:100E70001DD074C085F076C087F075C086F084C040
:100E800089F083C088F0A2D702C080F001C07FF053
:100E90007F517527805176237F51775F8051785B32
:100EA0007F517B2780517C230DD006D07D2BD8B479
:100EB0007E2B010E856F12DF79517D5DCBE17A517A
:100EC0007E5DC8E181517F5D0CE18251805D09E169
:100ED00079517D5D03E17A517E5D03E077517811B0
:100EE000A7E17BC001F0000C939E8A8E2FC074F0A6
:100EF000742B7407D8B404D0FF0E856FEFDEF9D7DA
:100F00002EC085F0EBDE939E8A9E2FC074F0742B6A
:100F10007407D8B404D0FF0E856FE0DEF9D72EC079
:100F200085F0DCDEAFEF07F03050000A03E0010A85
:100F300004E006D0939A8A9A03D0939A8A8A00D0C2
:100F4000716B706B715313E13250705D10E2736B13
:100F5000726B735308E13150725D05E2C5D7722B95
:100F6000D8B4732BF6D7702BD8B4712BEBD7000CF9
:100F7000F86AD09E0D8EEA6AE96AC150C00B0F096B
:100F8000C16E070EB46E196A1A6A256A276A040EC2
:100F9000286E0C0E296E2C6A9AD6C150C00B0F0910
:100FA000C16EC69A949E93809392000EC66EC76ED1
:100FB000800ED56ECD6A000ECA6E000ECB6E070E87
:100FC000B46E9250270E006E002EFED700D0B450A3
:100FD000A19CB56AD36AD3502F6A080E2E6E939ADD
:100FE0008A8A939C8A9C939E8A9E938C81AC32D0F1
:100FF000939C8A8C939E8A8E2FC074F0742B7407F6
:10100000D8B404D0FF0E856F69DEF9D72EC085F005
:1010100065DE939E8A9E2FC074F0742B7407D8B43B
:1010200004D0FF0E856F5ADEF9D72EC085F056DE4C
:1010300020520FE023A20DD0010E746F766B300E9C
:10104000756F786B400E776F7A6B640E796FDEDEAA
:101050006BDFCBD7939C8A9C20520FE023A20DD04C
:10106000010E746F766B300E756F786B400E776F74
:0E1070007A6B640E796FCADE57DFB5D70300C6
:020000040030CA
:0E000000240E3E1E008381000FC00FE00F4053
:00000001FF
;PIC18F2455
